{"abi":[{"type":"constructor","inputs":[{"name":"_minter","type":"address","internalType":"address"}],"stateMutability":"nonpayable"},{"type":"function","name":"default_recipient","inputs":[],"outputs":[{"name":"","type":"address","internalType":"address"}],"stateMutability":"view"},{"type":"function","name":"getWinner","inputs":[{"name":"block_number","type":"uint256","internalType":"uint256"}],"outputs":[{"name":"","type":"address","internalType":"address"}],"stateMutability":"view"},{"type":"function","name":"mintTicket","inputs":[{"name":"to","type":"address","internalType":"address"}],"outputs":[],"stateMutability":"nonpayable"},{"type":"function","name":"minter","inputs":[],"outputs":[{"name":"","type":"address","internalType":"address"}],"stateMutability":"view"},{"type":"function","name":"next_refresh_block","inputs":[],"outputs":[{"name":"","type":"uint256","internalType":"uint256"}],"stateMutability":"view"},{"type":"function","name":"refreshTickets","inputs":[],"outputs":[],"stateMutability":"nonpayable"},{"type":"function","name":"setDefaultRecipient","inputs":[{"name":"_default_recipient","type":"address","internalType":"address"}],"outputs":[],"stateMutability":"nonpayable"},{"type":"function","name":"ticket_address","inputs":[],"outputs":[{"name":"","type":"address","internalType":"address"}],"stateMutability":"view"}],"bytecode":{"object":"0x608060405234801561001057600080fd5b5060405161209138038061209183398101604081905261002f916100c6565b600080546001600160a01b0319166001600160a01b0383161790556040513090610058906100b9565b6001600160a01b039091168152602001604051809103906000f080158015610084573d6000803e3d6000fd5b50600280546001600160a01b03929092166001600160a01b0319928316179055436004556001805490911633179055506100f6565b61184f8061084283390190565b6000602082840312156100d857600080fd5b81516001600160a01b03811681146100ef57600080fd5b9392505050565b61073d806101056000396000f3fe608060405234801561001057600080fd5b50600436106100885760003560e01c80636ecba3e31161005b5780636ecba3e3146100f85780637499b26114610100578063b142eaab14610117578063c90335b81461012a57600080fd5b8063075461721461008d57806308e9bd26146100bd5780634129b2c9146100d25780634f7a6c3c146100e5575b600080fd5b6000546100a0906001600160a01b031681565b6040516001600160a01b0390911681526020015b60405180910390f35b6100d06100cb366004610658565b61013d565b005b6100a06100e0366004610675565b61020a565b6100d06100f3366004610658565b6102be565b6100d0610350565b61010960045481565b6040519081526020016100b4565b6002546100a0906001600160a01b031681565b6001546100a0906001600160a01b031681565b6000546001600160a01b031633146101a85760405162461bcd60e51b8152602060048201526024808201527f4f6e6c7920746865206d696e7465722063616e206d696e74206e6577207469636044820152636b65747360e01b60648201526084015b60405180910390fd5b6002546040516340d097c360e01b81526001600160a01b038381166004830152909116906340d097c390602401600060405180830381600087803b1580156101ef57600080fd5b505af1158015610203573d6000803e3d6000fd5b5050505050565b6002546004546000916001600160a01b03169083106102a157806001600160a01b0316636352211e61023b856104df565b6040518263ffffffff1660e01b815260040161025991815260200190565b602060405180830381865afa158015610276573d6000803e3d6000fd5b505050506040513d601f19601f8201168201806040525081019061029a919061068e565b9392505050565b50506000908152600360205260409020546001600160a01b031690565b6000546001600160a01b0316331461032e5760405162461bcd60e51b815260206004820152602d60248201527f4f6e6c7920746865206d696e7465722063616e2073657420746865206465666160448201526c1d5b1d081c9958da5c1a595b9d609a1b606482015260840161019f565b600180546001600160a01b0319166001600160a01b0392909216919091179055565b60045443116103bc5760405162461bcd60e51b815260206004820152603260248201527f43616e6e6f742072656672657368207469636b65747320616761696e206265666044820152716f726520746865206e65787420626c6f636b60701b606482015260840161019f565b6004545b438110156104d85760006103d3826104df565b6002546040516331a9108f60e11b8152600481018390529192506001600160a01b031690636352211e90602401602060405180830381865afa15801561041d573d6000803e3d6000fd5b505050506040513d601f19601f82011682018060405250810190610441919061068e565b6000838152600360205260409081902080546001600160a01b0319166001600160a01b039384161790556002546001549151634c57542360e01b815291831660048301526024820184905290911690634c57542390604401600060405180830381600087803b1580156104b357600080fd5b505af11580156104c7573d6000803e3d6000fd5b5050600190930192506103c0915050565b5043600455565b60006104ed610124436106ab565b821161054d5760405162461bcd60e51b815260206004820152602960248201527f43616e6e6f7420717565727920626c6f636b73206f6c646572207468616e2032604482015268393220626c6f636b7360b81b606482015260840161019f565b600280546001600160a01b03169061056590846106cc565b15610571576000610574565b60015b6105819060ff16846106ab565b925060006105fe826001600160a01b03166390bbd755866040518263ffffffff1660e01b81526004016105b691815260200190565b602060405180830381865afa1580156105d3573d6000803e3d6000fd5b505050506040513d601f19601f820116820180604052508101906105f791906106ee565b6001610626565b9050600061060d6040866106ab565b409050600061061c83836106cc565b9695505050505050565b60008183106106355782610637565b815b90505b92915050565b6001600160a01b038116811461065557600080fd5b50565b60006020828403121561066a57600080fd5b813561029a81610640565b60006020828403121561068757600080fd5b5035919050565b6000602082840312156106a057600080fd5b815161029a81610640565b8181038181111561063a57634e487b7160e01b600052601160045260246000fd5b6000826106e957634e487b7160e01b600052601260045260246000fd5b500690565b60006020828403121561070057600080fd5b505191905056fea2646970667358221220131167a5934197f22500f9a461ee447d902ed30ee9ad86584b39b0c942f456a164736f6c634300081a0033608060405234801561001057600080fd5b5060405161184f38038061184f83398101604081905261002f9161011d565b8060405180604001604052806006815260200165151a58dad95d60d21b815250604051806040016040528060018152602001601560fa1b815250816000908161007891906101ec565b50600161008582826101ec565b5050506001600160a01b0381166100b657604051631e4fbdf760e01b81526000600482015260240160405180910390fd5b6100bf816100cb565b50506000600b556102aa565b600a80546001600160a01b038381166001600160a01b0319831681179093556040519116919082907f8be0079c531659141344cd1fd0a4f28419497f9722a3daafe3b4186f6b6457e090600090a35050565b60006020828403121561012f57600080fd5b81516001600160a01b038116811461014657600080fd5b9392505050565b634e487b7160e01b600052604160045260246000fd5b600181811c9082168061017757607f821691505b60208210810361019757634e487b7160e01b600052602260045260246000fd5b50919050565b601f8211156101e757806000526020600020601f840160051c810160208510156101c45750805b601f840160051c820191505b818110156101e457600081556001016101d0565b50505b505050565b81516001600160401b038111156102055761020561014d565b610219816102138454610163565b8461019d565b6020601f82116001811461024d57600083156102355750848201515b600019600385901b1c1916600184901b1784556101e4565b600084815260208120601f198516915b8281101561027d578785015182556020948501946001909201910161025d565b508482101561029b5786840151600019600387901b60f8161c191681555b50505050600190811b01905550565b611596806102b96000396000f3fe608060405234801561001057600080fd5b506004361061014d5760003560e01c80636352211e116100c3578063a22cb4651161007c578063a22cb465146102ad578063ac5f82f2146102c0578063b88d4fde146102e0578063c87b56dd146102f3578063e985e9c514610306578063f2fde38b1461031957600080fd5b80636352211e1461025357806370a0823114610266578063715018a6146102795780638da5cb5b1461028157806390bbd7551461029257806395d89b41146102a557600080fd5b806323b872dd1161011557806323b872dd146101e15780632f745c59146101f457806340d097c31461020757806342842e0e1461021a5780634c5754231461022d5780634f6ccce71461024057600080fd5b806301ffc9a71461015257806306fdde031461017a578063081812fc1461018f578063095ea7b3146101ba57806318160ddd146101cf575b600080fd5b610165610160366004611181565b61032c565b60405190151581526020015b60405180910390f35b61018261033d565b60405161017191906111ee565b6101a261019d366004611201565b6103cf565b6040516001600160a01b039091168152602001610171565b6101cd6101c8366004611231565b6103f8565b005b6008545b604051908152602001610171565b6101cd6101ef36600461125b565b505050565b6101d3610202366004611231565b610407565b6101cd610215366004611298565b610471565b6101cd61022836600461125b565b61049a565b6101cd61023b366004611231565b6104b5565b6101d361024e366004611201565b6104c9565b6101a2610261366004611201565b610522565b6101d3610274366004611298565b61052d565b6101cd610575565b600a546001600160a01b03166101a2565b6101d36102a0366004611201565b610589565b6101826105b4565b6101cd6102bb3660046112b3565b6105c3565b6101d36102ce366004611201565b600c6020526000908152604090205481565b6101cd6102ee366004611305565b6105ce565b610182610301366004611201565b6105e1565b6101656103143660046113e9565b610656565b6101cd610327366004611298565b610684565b6000610337826106c2565b92915050565b60606000805461034c9061141c565b80601f01602080910402602001604051908101604052809291908181526020018280546103789061141c565b80156103c55780601f1061039a576101008083540402835291602001916103c5565b820191906000526020600020905b8154815290600101906020018083116103a857829003601f168201915b5050505050905090565b60006103da826106e7565b506000828152600460205260409020546001600160a01b0316610337565b610403828233610720565b5050565b60006104128361052d565b82106104485760405163295f44f760e21b81526001600160a01b0384166004820152602481018390526044015b60405180910390fd5b506001600160a01b03919091166000908152600660209081526040808320938352929052205490565b61047961072d565b600b80546000918261048a8361146c565b919050559050610403828261075a565b6101ef838383604051806020016040528060008152506105ce565b6104bd61072d565b6101ef82826000610774565b60006104d460085490565b82106104fd5760405163295f44f760e21b8152600060048201526024810183905260440161043f565b6008828154811061051057610510611485565b90600052602060002001549050919050565b6000610337826106e7565b60006001600160a01b038216610559576040516322718ad960e21b81526000600482015260240161043f565b506001600160a01b031660009081526003602052604090205490565b61057d61072d565b6105876000610794565b565b6000600d5482116105a757506000908152600c602052604090205490565b600854610337565b919050565b60606001805461034c9061141c565b6104033383836107e6565b6105db3385858585610885565b50505050565b60606105ec826106e7565b50600061060460408051602081019091526000815290565b90506000815111610624576040518060200160405280600081525061064f565b8061062e846109b0565b60405160200161063f92919061149b565b6040516020818303038152906040525b9392505050565b6001600160a01b03918216600090815260056020908152604080832093909416825291909152205460ff1690565b61068c61072d565b6001600160a01b0381166106b657604051631e4fbdf760e01b81526000600482015260240161043f565b6106bf81610794565b50565b60006001600160e01b0319821663780e9d6360e01b1480610337575061033782610a43565b6000818152600260205260408120546001600160a01b03168061033757604051637e27328960e01b81526004810184905260240161043f565b6101ef8383836001610a93565b600a546001600160a01b031633146105875760405163118cdaa760e01b815233600482015260240161043f565b610403828260405180602001604052806000815250610b99565b600080610782858585610bb1565b905061078c610c7e565b949350505050565b600a80546001600160a01b038381166001600160a01b0319831681179093556040519116919082907f8be0079c531659141344cd1fd0a4f28419497f9722a3daafe3b4186f6b6457e090600090a35050565b6001600160a01b03821661081857604051630b61174360e31b81526001600160a01b038316600482015260240161043f565b6001600160a01b03838116600081815260056020908152604080832094871680845294825291829020805460ff191686151590811790915591519182527f17307eab39ab6107e8899845ad3d59bd9653f200f220920489ca2b5937696c31910160405180910390a3505050565b6001600160a01b0383163b156109a957604051630a85bd0160e11b81526001600160a01b0384169063150b7a02906108c79088908890879087906004016114ca565b6020604051808303816000875af1925050508015610902575060408051601f3d908101601f191682019092526108ff91810190611507565b60015b61096b573d808015610930576040519150601f19603f3d011682016040523d82523d6000602084013e610935565b606091505b50805160000361096357604051633250574960e11b81526001600160a01b038516600482015260240161043f565b805181602001fd5b6001600160e01b03198116630a85bd0160e11b146109a757604051633250574960e11b81526001600160a01b038516600482015260240161043f565b505b5050505050565b606060006109bd83610cee565b600101905060008167ffffffffffffffff8111156109dd576109dd6112ef565b6040519080825280601f01601f191660200182016040528015610a07576020820181803683370190505b5090508181016020015b600019016f181899199a1a9b1b9c1cb0b131b232b360811b600a86061a8153600a8504945084610a1157509392505050565b60006001600160e01b031982166380ac58cd60e01b1480610a7457506001600160e01b03198216635b5e139f60e01b145b8061033757506301ffc9a760e01b6001600160e01b0319831614610337565b8080610aa757506001600160a01b03821615155b15610b69576000610ab7846106e7565b90506001600160a01b03831615801590610ae35750826001600160a01b0316816001600160a01b031614155b8015610af65750610af48184610656565b155b15610b1f5760405163a9fbf51f60e01b81526001600160a01b038416600482015260240161043f565b8115610b675783856001600160a01b0316826001600160a01b03167f8c5be1e5ebec7d5bd14f71427d1e84f3dd0314c0f7b2291e5b200ac8c7c3b92560405160405180910390a45b505b5050600090815260046020526040902080546001600160a01b0319166001600160a01b0392909216919091179055565b610ba38383610dc6565b6101ef336000858585610885565b600080610bbf858585610e2b565b90506001600160a01b038116610c1c57610c1784600880546000838152600960205260408120829055600182018355919091527ff3f7a9fe364faab93b216da50a3214154f22a0a2b415b23a84c8169e8b636ee30155565b610c3f565b846001600160a01b0316816001600160a01b031614610c3f57610c3f8185610f24565b6001600160a01b038516610c5b57610c5684610fa5565b61078c565b846001600160a01b0316816001600160a01b03161461078c5761078c8585611054565b6001600d5443610c8e9190611524565b1115610cd3576000600d546001610ca59190611537565b90505b43811015610cd157600d546000908152600c602052604080822054838352912055600101610ca8565b505b600854436000818152600c6020526040902091909155600d55565b60008072184f03e93ff9f4daa797ed6e38ed64bf6a1f0160401b8310610d2d5772184f03e93ff9f4daa797ed6e38ed64bf6a1f0160401b830492506040015b6d04ee2d6d415b85acef81000000008310610d59576d04ee2d6d415b85acef8100000000830492506020015b662386f26fc100008310610d7757662386f26fc10000830492506010015b6305f5e1008310610d8f576305f5e100830492506008015b6127108310610da357612710830492506004015b60648310610db5576064830492506002015b600a83106103375760010192915050565b6001600160a01b038216610df057604051633250574960e11b81526000600482015260240161043f565b6000610dfe83836000610774565b90506001600160a01b038116156101ef576040516339e3563760e11b81526000600482015260240161043f565b6000828152600260205260408120546001600160a01b0390811690831615610e5857610e588184866110a4565b6001600160a01b03811615610e9657610e75600085600080610a93565b6001600160a01b038116600090815260036020526040902080546000190190555b6001600160a01b03851615610ec5576001600160a01b0385166000908152600360205260409020805460010190555b60008481526002602052604080822080546001600160a01b0319166001600160a01b0389811691821790925591518793918516917fddf252ad1be2c89b69c2b068fc378daa952ba7f163c4a11628f55a4df523b3ef91a4949350505050565b6000610f2f8361052d565b6000838152600760209081526040808320546001600160a01b0388168452600690925290912091925090818314610f8657600083815260208281526040808320548584528184208190558352600790915290208290555b6000938452600760209081526040808620869055938552525081205550565b600854600090610fb790600190611524565b60008381526009602052604081205460088054939450909284908110610fdf57610fdf611485565b90600052602060002001549050806008838154811061100057611000611485565b60009182526020808320909101929092558281526009909152604080822084905585825281205560088054806110385761103861154a565b6001900381819060005260206000200160009055905550505050565b600060016110618461052d565b61106b9190611524565b6001600160a01b039093166000908152600660209081526040808320868452825280832085905593825260079052919091209190915550565b6110af838383611108565b6101ef576001600160a01b0383166110dd57604051637e27328960e01b81526004810182905260240161043f565b60405163177e802f60e01b81526001600160a01b03831660048201526024810182905260440161043f565b60006001600160a01b0383161580159061078c5750826001600160a01b0316846001600160a01b0316148061114257506111428484610656565b8061078c5750506000908152600460205260409020546001600160a01b03908116911614919050565b6001600160e01b0319811681146106bf57600080fd5b60006020828403121561119357600080fd5b813561064f8161116b565b60005b838110156111b95781810151838201526020016111a1565b50506000910152565b600081518084526111da81602086016020860161119e565b601f01601f19169290920160200192915050565b60208152600061064f60208301846111c2565b60006020828403121561121357600080fd5b5035919050565b80356001600160a01b03811681146105af57600080fd5b6000806040838503121561124457600080fd5b61124d8361121a565b946020939093013593505050565b60008060006060848603121561127057600080fd5b6112798461121a565b92506112876020850161121a565b929592945050506040919091013590565b6000602082840312156112aa57600080fd5b61064f8261121a565b600080604083850312156112c657600080fd5b6112cf8361121a565b9150602083013580151581146112e457600080fd5b809150509250929050565b634e487b7160e01b600052604160045260246000fd5b6000806000806080858703121561131b57600080fd5b6113248561121a565b93506113326020860161121a565b925060408501359150606085013567ffffffffffffffff81111561135557600080fd5b8501601f8101871361136657600080fd5b803567ffffffffffffffff811115611380576113806112ef565b604051601f8201601f19908116603f0116810167ffffffffffffffff811182821017156113af576113af6112ef565b6040528181528282016020018910156113c757600080fd5b8160208401602083013760006020838301015280935050505092959194509250565b600080604083850312156113fc57600080fd5b6114058361121a565b91506114136020840161121a565b90509250929050565b600181811c9082168061143057607f821691505b60208210810361145057634e487b7160e01b600052602260045260246000fd5b50919050565b634e487b7160e01b600052601160045260246000fd5b60006001820161147e5761147e611456565b5060010190565b634e487b7160e01b600052603260045260246000fd5b600083516114ad81846020880161119e565b8351908301906114c181836020880161119e565b01949350505050565b6001600160a01b03858116825284166020820152604081018390526080606082018190526000906114fd908301846111c2565b9695505050505050565b60006020828403121561151957600080fd5b815161064f8161116b565b8181038181111561033757610337611456565b8082018082111561033757610337611456565b634e487b7160e01b600052603160045260246000fdfea264697066735822122055c57e683e9ccb74790642a9805782e2fa54c18ccaab8b1c4e87fdbdfbd190d564736f6c634300081a0033","linkReferences":{}},"methodIdentifiers":{"default_recipient()":"c90335b8","getWinner(uint256)":"4129b2c9","mintTicket(address)":"08e9bd26","minter()":"07546172","next_refresh_block()":"7499b261","refreshTickets()":"6ecba3e3","setDefaultRecipient(address)":"4f7a6c3c","ticket_address()":"b142eaab"},"id":41}