{"abi":[{"type":"constructor","inputs":[{"name":"_minter","type":"address","internalType":"address"}],"stateMutability":"nonpayable"},{"type":"function","name":"default_recipient","inputs":[],"outputs":[{"name":"","type":"address","internalType":"address"}],"stateMutability":"view"},{"type":"function","name":"getWinner","inputs":[{"name":"block_number","type":"uint256","internalType":"uint256"}],"outputs":[{"name":"","type":"address","internalType":"address"}],"stateMutability":"view"},{"type":"function","name":"mintTicket","inputs":[{"name":"to","type":"address","internalType":"address"}],"outputs":[],"stateMutability":"nonpayable"},{"type":"function","name":"minter","inputs":[],"outputs":[{"name":"","type":"address","internalType":"address"}],"stateMutability":"view"},{"type":"function","name":"next_refresh_block","inputs":[],"outputs":[{"name":"","type":"uint256","internalType":"uint256"}],"stateMutability":"view"},{"type":"function","name":"refreshTickets","inputs":[],"outputs":[],"stateMutability":"nonpayable"},{"type":"function","name":"setDefaultRecipient","inputs":[{"name":"_default_recipient","type":"address","internalType":"address"}],"outputs":[],"stateMutability":"nonpayable"},{"type":"function","name":"ticket_address","inputs":[],"outputs":[{"name":"","type":"address","internalType":"address"}],"stateMutability":"view"}],"bytecode":{"object":"0x608060405234801561001057600080fd5b506040516120ea3803806120ea83398101604081905261002f916100c6565b600080546001600160a01b0319166001600160a01b0383161790556040513090610058906100b9565b6001600160a01b039091168152602001604051809103906000f080158015610084573d6000803e3d6000fd5b50600280546001600160a01b03929092166001600160a01b0319928316179055436004556001805490911633179055506100f6565b6118808061086a83390190565b6000602082840312156100d857600080fd5b81516001600160a01b03811681146100ef57600080fd5b9392505050565b610765806101056000396000f3fe608060405234801561001057600080fd5b50600436106100885760003560e01c80636ecba3e31161005b5780636ecba3e3146100f85780637499b26114610100578063b142eaab14610117578063c90335b81461012a57600080fd5b8063075461721461008d57806308e9bd26146100bd5780634129b2c9146100d25780634f7a6c3c146100e5575b600080fd5b6000546100a0906001600160a01b031681565b6040516001600160a01b0390911681526020015b60405180910390f35b6100d06100cb36600461065f565b61013d565b005b6100a06100e036600461067c565b61020a565b6100d06100f336600461065f565b6102be565b6100d0610350565b61010960045481565b6040519081526020016100b4565b6002546100a0906001600160a01b031681565b6001546100a0906001600160a01b031681565b6000546001600160a01b031633146101a85760405162461bcd60e51b8152602060048201526024808201527f4f6e6c7920746865206d696e7465722063616e206d696e74206e6577207469636044820152636b65747360e01b60648201526084015b60405180910390fd5b6002546040516340d097c360e01b81526001600160a01b038381166004830152909116906340d097c390602401600060405180830381600087803b1580156101ef57600080fd5b505af1158015610203573d6000803e3d6000fd5b5050505050565b6002546004546000916001600160a01b03169083106102a157806001600160a01b0316636352211e61023b856104e6565b6040518263ffffffff1660e01b815260040161025991815260200190565b602060405180830381865afa158015610276573d6000803e3d6000fd5b505050506040513d601f19601f8201168201806040525081019061029a9190610695565b9392505050565b50506000908152600360205260409020546001600160a01b031690565b6000546001600160a01b0316331461032e5760405162461bcd60e51b815260206004820152602d60248201527f4f6e6c7920746865206d696e7465722063616e2073657420746865206465666160448201526c1d5b1d081c9958da5c1a595b9d609a1b606482015260840161019f565b600180546001600160a01b0319166001600160a01b0392909216919091179055565b60045443116103bc5760405162461bcd60e51b815260206004820152603260248201527f43616e6e6f742072656672657368207469636b65747320616761696e206265666044820152716f726520746865206e65787420626c6f636b60701b606482015260840161019f565b6004545b438110156104df5760006103d3826104e6565b6002546040516331a9108f60e11b8152600481018390529192506001600160a01b031690636352211e90602401602060405180830381865afa15801561041d573d6000803e3d6000fd5b505050506040513d601f19601f820116820180604052508101906104419190610695565b6000838152600360205260409081902080546001600160a01b0319166001600160a01b039384161790556002546001549151634c57542360e01b815291831660048301526024820184905290911690634c57542390604401600060405180830381600087803b1580156104b357600080fd5b505af11580156104c7573d6000803e3d6000fd5b505050505080806104d7906106c8565b9150506103c0565b5043600455565b60006104f4610124436106e1565b82116105545760405162461bcd60e51b815260206004820152602960248201527f43616e6e6f7420717565727920626c6f636b73206f6c646572207468616e2032604482015268393220626c6f636b7360b81b606482015260840161019f565b600280546001600160a01b03169061056c90846106f4565b1561057857600061057b565b60015b6105889060ff16846106e1565b92506000610605826001600160a01b03166390bbd755866040518263ffffffff1660e01b81526004016105bd91815260200190565b602060405180830381865afa1580156105da573d6000803e3d6000fd5b505050506040513d601f19601f820116820180604052508101906105fe9190610716565b600161062d565b905060006106146040866106e1565b409050600061062383836106f4565b9695505050505050565b600081831061063c578261063e565b815b90505b92915050565b6001600160a01b038116811461065c57600080fd5b50565b60006020828403121561067157600080fd5b813561029a81610647565b60006020828403121561068e57600080fd5b5035919050565b6000602082840312156106a757600080fd5b815161029a81610647565b634e487b7160e01b600052601160045260246000fd5b6000600182016106da576106da6106b2565b5060010190565b81810381811115610641576106416106b2565b60008261071157634e487b7160e01b600052601260045260246000fd5b500690565b60006020828403121561072857600080fd5b505191905056fea2646970667358221220ae8663eadf7e46741378a789a16461437bcf8c21184785997d0c35d621fd82f064736f6c6343000815003360806040523480156200001157600080fd5b50604051620018803803806200188083398101604081905262000034916200012a565b8060405180604001604052806006815260200165151a58dad95d60d21b815250604051806040016040528060018152602001601560fa1b81525081600090816200007f919062000201565b5060016200008e828262000201565b5050506001600160a01b038116620000c057604051631e4fbdf760e01b81526000600482015260240160405180910390fd5b620000cb81620000d8565b50506000600b55620002cd565b600a80546001600160a01b038381166001600160a01b0319831681179093556040519116919082907f8be0079c531659141344cd1fd0a4f28419497f9722a3daafe3b4186f6b6457e090600090a35050565b6000602082840312156200013d57600080fd5b81516001600160a01b03811681146200015557600080fd5b9392505050565b634e487b7160e01b600052604160045260246000fd5b600181811c908216806200018757607f821691505b602082108103620001a857634e487b7160e01b600052602260045260246000fd5b50919050565b601f821115620001fc57600081815260208120601f850160051c81016020861015620001d75750805b601f850160051c820191505b81811015620001f857828155600101620001e3565b5050505b505050565b81516001600160401b038111156200021d576200021d6200015c565b62000235816200022e845462000172565b84620001ae565b602080601f8311600181146200026d5760008415620002545750858301515b600019600386901b1c1916600185901b178555620001f8565b600085815260208120601f198616915b828110156200029e578886015182559484019460019091019084016200027d565b5085821015620002bd5787850151600019600388901b60f8161c191681555b5050505050600190811b01905550565b6115a380620002dd6000396000f3fe608060405234801561001057600080fd5b506004361061014d5760003560e01c80636352211e116100c3578063a22cb4651161007c578063a22cb465146102ad578063ac5f82f2146102c0578063b88d4fde146102e0578063c87b56dd146102f3578063e985e9c514610306578063f2fde38b1461031957600080fd5b80636352211e1461025357806370a0823114610266578063715018a6146102795780638da5cb5b1461028157806390bbd7551461029257806395d89b41146102a557600080fd5b806323b872dd1161011557806323b872dd146101e15780632f745c59146101f457806340d097c31461020757806342842e0e1461021a5780634c5754231461022d5780634f6ccce71461024057600080fd5b806301ffc9a71461015257806306fdde031461017a578063081812fc1461018f578063095ea7b3146101ba57806318160ddd146101cf575b600080fd5b610165610160366004611197565b61032c565b60405190151581526020015b60405180910390f35b61018261033d565b6040516101719190611204565b6101a261019d366004611217565b6103cf565b6040516001600160a01b039091168152602001610171565b6101cd6101c8366004611247565b6103f8565b005b6008545b604051908152602001610171565b6101cd6101ef366004611271565b505050565b6101d3610202366004611247565b610407565b6101cd6102153660046112ad565b610471565b6101cd610228366004611271565b61049a565b6101cd61023b366004611247565b6104b5565b6101d361024e366004611217565b6104c9565b6101a2610261366004611217565b610522565b6101d36102743660046112ad565b61052d565b6101cd610575565b600a546001600160a01b03166101a2565b6101d36102a0366004611217565b610589565b6101826105b4565b6101cd6102bb3660046112c8565b6105c3565b6101d36102ce366004611217565b600c6020526000908152604090205481565b6101cd6102ee36600461131a565b6105ce565b610182610301366004611217565b6105e0565b6101656103143660046113f6565b610655565b6101cd6103273660046112ad565b610683565b6000610337826106c1565b92915050565b60606000805461034c90611429565b80601f016020809104026020016040519081016040528092919081815260200182805461037890611429565b80156103c55780601f1061039a576101008083540402835291602001916103c5565b820191906000526020600020905b8154815290600101906020018083116103a857829003601f168201915b5050505050905090565b60006103da826106e6565b506000828152600460205260409020546001600160a01b0316610337565b61040382823361071f565b5050565b60006104128361052d565b82106104485760405163295f44f760e21b81526001600160a01b0384166004820152602481018390526044015b60405180910390fd5b506001600160a01b03919091166000908152600660209081526040808320938352929052205490565b61047961072c565b600b80546000918261048a83611479565b9190505590506104038282610759565b6101ef838383604051806020016040528060008152506105ce565b6104bd61072c565b6101ef82826000610773565b60006104d460085490565b82106104fd5760405163295f44f760e21b8152600060048201526024810183905260440161043f565b6008828154811061051057610510611492565b90600052602060002001549050919050565b6000610337826106e6565b60006001600160a01b038216610559576040516322718ad960e21b81526000600482015260240161043f565b506001600160a01b031660009081526003602052604090205490565b61057d61072c565b6105876000610793565b565b6000600d5482116105a757506000908152600c602052604090205490565b600854610337565b919050565b60606001805461034c90611429565b6104033383836107e5565b6105da84848484610884565b50505050565b60606105eb826106e6565b50600061060360408051602081019091526000815290565b90506000815111610623576040518060200160405280600081525061064e565b8061062d846109ad565b60405160200161063e9291906114a8565b6040516020818303038152906040525b9392505050565b6001600160a01b03918216600090815260056020908152604080832093909416825291909152205460ff1690565b61068b61072c565b6001600160a01b0381166106b557604051631e4fbdf760e01b81526000600482015260240161043f565b6106be81610793565b50565b60006001600160e01b0319821663780e9d6360e01b1480610337575061033782610a40565b6000818152600260205260408120546001600160a01b03168061033757604051637e27328960e01b81526004810184905260240161043f565b6101ef8383836001610a90565b600a546001600160a01b031633146105875760405163118cdaa760e01b815233600482015260240161043f565b610403828260405180602001604052806000815250610b96565b600080610781858585610bad565b905061078b610c7a565b949350505050565b600a80546001600160a01b038381166001600160a01b0319831681179093556040519116919082907f8be0079c531659141344cd1fd0a4f28419497f9722a3daafe3b4186f6b6457e090600090a35050565b6001600160a01b03821661081757604051630b61174360e31b81526001600160a01b038316600482015260240161043f565b6001600160a01b03838116600081815260056020908152604080832094871680845294825291829020805460ff191686151590811790915591519182527f17307eab39ab6107e8899845ad3d59bd9653f200f220920489ca2b5937696c31910160405180910390a3505050565b6001600160a01b0383163b156105da57604051630a85bd0160e11b81526001600160a01b0384169063150b7a02906108c69033908890879087906004016114d7565b6020604051808303816000875af1925050508015610901575060408051601f3d908101601f191682019092526108fe91810190611514565b60015b61096a573d80801561092f576040519150601f19603f3d011682016040523d82523d6000602084013e610934565b606091505b50805160000361096257604051633250574960e11b81526001600160a01b038516600482015260240161043f565b805181602001fd5b6001600160e01b03198116630a85bd0160e11b146109a657604051633250574960e11b81526001600160a01b038516600482015260240161043f565b5050505050565b606060006109ba83610cf4565b600101905060008167ffffffffffffffff8111156109da576109da611304565b6040519080825280601f01601f191660200182016040528015610a04576020820181803683370190505b5090508181016020015b600019016f181899199a1a9b1b9c1cb0b131b232b360811b600a86061a8153600a8504945084610a0e57509392505050565b60006001600160e01b031982166380ac58cd60e01b1480610a7157506001600160e01b03198216635b5e139f60e01b145b8061033757506301ffc9a760e01b6001600160e01b0319831614610337565b8080610aa457506001600160a01b03821615155b15610b66576000610ab4846106e6565b90506001600160a01b03831615801590610ae05750826001600160a01b0316816001600160a01b031614155b8015610af35750610af18184610655565b155b15610b1c5760405163a9fbf51f60e01b81526001600160a01b038416600482015260240161043f565b8115610b645783856001600160a01b0316826001600160a01b03167f8c5be1e5ebec7d5bd14f71427d1e84f3dd0314c0f7b2291e5b200ac8c7c3b92560405160405180910390a45b505b5050600090815260046020526040902080546001600160a01b0319166001600160a01b0392909216919091179055565b610ba08383610dcc565b6101ef6000848484610884565b600080610bbb858585610e31565b90506001600160a01b038116610c1857610c1384600880546000838152600960205260408120829055600182018355919091527ff3f7a9fe364faab93b216da50a3214154f22a0a2b415b23a84c8169e8b636ee30155565b610c3b565b846001600160a01b0316816001600160a01b031614610c3b57610c3b8185610f2a565b6001600160a01b038516610c5757610c5284610fbb565b61078b565b846001600160a01b0316816001600160a01b03161461078b5761078b858561106a565b6001600d5443610c8a9190611531565b1115610cd9576000600d546001610ca19190611544565b90505b43811015610cd757600d546000908152600c60205260408082205483835291205580610ccf81611479565b915050610ca4565b505b600854436000818152600c6020526040902091909155600d55565b60008072184f03e93ff9f4daa797ed6e38ed64bf6a1f0160401b8310610d335772184f03e93ff9f4daa797ed6e38ed64bf6a1f0160401b830492506040015b6d04ee2d6d415b85acef81000000008310610d5f576d04ee2d6d415b85acef8100000000830492506020015b662386f26fc100008310610d7d57662386f26fc10000830492506010015b6305f5e1008310610d95576305f5e100830492506008015b6127108310610da957612710830492506004015b60648310610dbb576064830492506002015b600a83106103375760010192915050565b6001600160a01b038216610df657604051633250574960e11b81526000600482015260240161043f565b6000610e0483836000610773565b90506001600160a01b038116156101ef576040516339e3563760e11b81526000600482015260240161043f565b6000828152600260205260408120546001600160a01b0390811690831615610e5e57610e5e8184866110ba565b6001600160a01b03811615610e9c57610e7b600085600080610a90565b6001600160a01b038116600090815260036020526040902080546000190190555b6001600160a01b03851615610ecb576001600160a01b0385166000908152600360205260409020805460010190555b60008481526002602052604080822080546001600160a01b0319166001600160a01b0389811691821790925591518793918516917fddf252ad1be2c89b69c2b068fc378daa952ba7f163c4a11628f55a4df523b3ef91a4949350505050565b6000610f358361052d565b600083815260076020526040902054909150808214610f88576001600160a01b03841660009081526006602090815260408083208584528252808320548484528184208190558352600790915290208190555b5060009182526007602090815260408084208490556001600160a01b039094168352600681528383209183525290812055565b600854600090610fcd90600190611531565b60008381526009602052604081205460088054939450909284908110610ff557610ff5611492565b90600052602060002001549050806008838154811061101657611016611492565b600091825260208083209091019290925582815260099091526040808220849055858252812055600880548061104e5761104e611557565b6001900381819060005260206000200160009055905550505050565b600060016110778461052d565b6110819190611531565b6001600160a01b039093166000908152600660209081526040808320868452825280832085905593825260079052919091209190915550565b6110c583838361111e565b6101ef576001600160a01b0383166110f357604051637e27328960e01b81526004810182905260240161043f565b60405163177e802f60e01b81526001600160a01b03831660048201526024810182905260440161043f565b60006001600160a01b0383161580159061078b5750826001600160a01b0316846001600160a01b0316148061115857506111588484610655565b8061078b5750506000908152600460205260409020546001600160a01b03908116911614919050565b6001600160e01b0319811681146106be57600080fd5b6000602082840312156111a957600080fd5b813561064e81611181565b60005b838110156111cf5781810151838201526020016111b7565b50506000910152565b600081518084526111f08160208601602086016111b4565b601f01601f19169290920160200192915050565b60208152600061064e60208301846111d8565b60006020828403121561122957600080fd5b5035919050565b80356001600160a01b03811681146105af57600080fd5b6000806040838503121561125a57600080fd5b61126383611230565b946020939093013593505050565b60008060006060848603121561128657600080fd5b61128f84611230565b925061129d60208501611230565b9150604084013590509250925092565b6000602082840312156112bf57600080fd5b61064e82611230565b600080604083850312156112db57600080fd5b6112e483611230565b9150602083013580151581146112f957600080fd5b809150509250929050565b634e487b7160e01b600052604160045260246000fd5b6000806000806080858703121561133057600080fd5b61133985611230565b935061134760208601611230565b925060408501359150606085013567ffffffffffffffff8082111561136b57600080fd5b818701915087601f83011261137f57600080fd5b81358181111561139157611391611304565b604051601f8201601f19908116603f011681019083821181831017156113b9576113b9611304565b816040528281528a60208487010111156113d257600080fd5b82602086016020830137600060208483010152809550505050505092959194509250565b6000806040838503121561140957600080fd5b61141283611230565b915061142060208401611230565b90509250929050565b600181811c9082168061143d57607f821691505b60208210810361145d57634e487b7160e01b600052602260045260246000fd5b50919050565b634e487b7160e01b600052601160045260246000fd5b60006001820161148b5761148b611463565b5060010190565b634e487b7160e01b600052603260045260246000fd5b600083516114ba8184602088016111b4565b8351908301906114ce8183602088016111b4565b01949350505050565b6001600160a01b038581168252841660208201526040810183905260806060820181905260009061150a908301846111d8565b9695505050505050565b60006020828403121561152657600080fd5b815161064e81611181565b8181038181111561033757610337611463565b8082018082111561033757610337611463565b634e487b7160e01b600052603160045260246000fdfea26469706673582212209f7322fbd94f1bc6453356c29b753e06d2f8d168a84aa959bfa0d64776d3f1ed64736f6c63430008150033","linkReferences":{}},"methodIdentifiers":{"default_recipient()":"c90335b8","getWinner(uint256)":"4129b2c9","mintTicket(address)":"08e9bd26","minter()":"07546172","next_refresh_block()":"7499b261","refreshTickets()":"6ecba3e3","setDefaultRecipient(address)":"4f7a6c3c","ticket_address()":"b142eaab"},"id":38}