{"abi":[{"type":"constructor","inputs":[],"stateMutability":"nonpayable"},{"type":"function","name":"blockNumber","inputs":[],"outputs":[{"name":"","type":"uint32","internalType":"uint32"}],"stateMutability":"view"},{"type":"function","name":"blocks","inputs":[{"name":"","type":"uint32","internalType":"uint32"}],"outputs":[{"name":"blockHash","type":"bytes32","internalType":"bytes32"},{"name":"parentHash","type":"bytes32","internalType":"bytes32"},{"name":"blockNumber","type":"uint32","internalType":"uint32"},{"name":"proposer","type":"address","internalType":"address"},{"name":"proposer_signature","type":"bytes","internalType":"bytes"}],"stateMutability":"view"},{"type":"function","name":"electionContract","inputs":[],"outputs":[{"name":"","type":"address","internalType":"contract ElectionInterface"}],"stateMutability":"view"},{"type":"function","name":"getBalance","inputs":[{"name":"tokenTicker","type":"string","internalType":"string"},{"name":"holder_address","type":"address","internalType":"address"}],"outputs":[{"name":"","type":"uint16","internalType":"uint16"}],"stateMutability":"view"},{"type":"function","name":"getTransactionsInBlock","inputs":[{"name":"block_number","type":"uint32","internalType":"uint32"}],"outputs":[{"name":"","type":"tuple[]","internalType":"struct SPVM.SPVMTransaction[]","components":[{"name":"txContent","type":"tuple","internalType":"struct SPVM.TransactionContent","components":[{"name":"from","type":"address","internalType":"address"},{"name":"txType","type":"uint8","internalType":"uint8"},{"name":"txParam","type":"bytes","internalType":"bytes"},{"name":"nonce","type":"uint32","internalType":"uint32"}]},{"name":"transactionHash","type":"bytes32","internalType":"bytes32"},{"name":"signature","type":"bytes","internalType":"bytes"}]}],"stateMutability":"view"},{"type":"function","name":"initialized_tickers","inputs":[{"name":"","type":"string","internalType":"string"}],"outputs":[{"name":"","type":"bool","internalType":"bool"}],"stateMutability":"view"},{"type":"function","name":"nonces","inputs":[{"name":"","type":"address","internalType":"address"}],"outputs":[{"name":"","type":"uint32","internalType":"uint32"}],"stateMutability":"view"},{"type":"function","name":"owner","inputs":[],"outputs":[{"name":"","type":"address","internalType":"address"}],"stateMutability":"view"},{"type":"function","name":"proposeBlock","inputs":[{"name":"proposed_block","type":"tuple","internalType":"struct SPVM.Block","components":[{"name":"transactions","type":"tuple[]","internalType":"struct SPVM.SPVMTransaction[]","components":[{"name":"txContent","type":"tuple","internalType":"struct SPVM.TransactionContent","components":[{"name":"from","type":"address","internalType":"address"},{"name":"txType","type":"uint8","internalType":"uint8"},{"name":"txParam","type":"bytes","internalType":"bytes"},{"name":"nonce","type":"uint32","internalType":"uint32"}]},{"name":"transactionHash","type":"bytes32","internalType":"bytes32"},{"name":"signature","type":"bytes","internalType":"bytes"}]},{"name":"blockHash","type":"bytes32","internalType":"bytes32"},{"name":"parentHash","type":"bytes32","internalType":"bytes32"},{"name":"blockNumber","type":"uint32","internalType":"uint32"},{"name":"proposer","type":"address","internalType":"address"},{"name":"proposer_signature","type":"bytes","internalType":"bytes"}]}],"outputs":[],"stateMutability":"nonpayable"},{"type":"function","name":"setBalanceExternal","inputs":[{"name":"tokenTicker","type":"string","internalType":"string"},{"name":"holder_address","type":"address","internalType":"address"},{"name":"balance","type":"uint16","internalType":"uint16"}],"outputs":[],"stateMutability":"nonpayable"},{"type":"function","name":"setElectionContract","inputs":[{"name":"_electionContract","type":"address","internalType":"contract ElectionInterface"}],"outputs":[],"stateMutability":"nonpayable"},{"type":"function","name":"setSlashingContract","inputs":[{"name":"_slashingContract","type":"address","internalType":"contract Slashing"}],"outputs":[],"stateMutability":"nonpayable"},{"type":"function","name":"slashingContract","inputs":[],"outputs":[{"name":"","type":"address","internalType":"contract Slashing"}],"stateMutability":"view"},{"type":"function","name":"state","inputs":[{"name":"","type":"string","internalType":"string"},{"name":"","type":"address","internalType":"address"}],"outputs":[{"name":"","type":"uint16","internalType":"uint16"}],"stateMutability":"view"},{"type":"event","name":"BalanceSet","inputs":[{"name":"tokenTicker","type":"string","indexed":false,"internalType":"string"},{"name":"holder_address","type":"address","indexed":false,"internalType":"address"},{"name":"balance","type":"uint16","indexed":false,"internalType":"uint16"}],"anonymous":false}],"bytecode":{"object":"0x60806040526004805463ffffffff60a01b19169055348015601f57600080fd5b50600080805260036020527f3617319a054d772f909f7c479a2cebe5066e836a939412e32403c99029b92f02805463ffffffff191690557f3617319a054d772f909f7c479a2cebe5066e836a939412e32403c99029b92f008190557f3617319a054d772f909f7c479a2cebe5066e836a939412e32403c99029b92f0155600480546001600160a01b031916331790556127a9806100bd6000396000f3fe608060405234801561001057600080fd5b50600436106100ea5760003560e01c806389f4b3171161008c578063c93949bf11610066578063c93949bf14610273578063cab3a58114610286578063e407bcbd14610299578063f46e2a30146102ac57600080fd5b806389f4b3171461020f5780638da5cb5b14610222578063a5d04e3d1461023557600080fd5b806357e871e7116100c857806357e871e7146101475780635cd0783e146101735780637dc97ea1146101975780637ecebe00146101e957600080fd5b80630c505e51146100ef57806342f5f91f1461011f5780634da48b9914610134575b600080fd5b600654610102906001600160a01b031681565b6040516001600160a01b0390911681526020015b60405180910390f35b61013261012d3660046115e0565b6102cc565b005b610132610142366004611752565b61089c565b60045461015e90600160a01b900463ffffffff1681565b60405163ffffffff9091168152602001610116565b6101866101813660046117c7565b610910565b604051610116959493929190611834565b6101d66101a5366004611878565b81516020818401810180516001825292820194820194909420919093529091526000908152604090205461ffff1681565b60405161ffff9091168152602001610116565b61015e6101f73660046118c9565b60026020526000908152604090205463ffffffff1681565b6101d661021d366004611878565b6109e2565b600454610102906001600160a01b031681565b6102636102433660046118e6565b805160208183018101805160008252928201919093012091525460ff1681565b6040519015158152602001610116565b6101326102813660046118c9565b610a26565b6101326102943660046118c9565b610aa1565b600554610102906001600160a01b031681565b6102bf6102ba3660046117c7565b610b1c565b6040516101169190611970565b6102d7600243611a06565b156103205760405162461bcd60e51b8152602060048201526014602482015273546f6f206561726c7920746f2070726f706f736560601b60448201526064015b60405180910390fd5b61037f602082013561033560a0840184611a28565b8080601f01602080910402602001604051908101604052809392919081815260200183838082843760009201919091525061037a9250505060a08501608086016118c9565b610d02565b6103cb5760405162461bcd60e51b815260206004820152601a60248201527f496e76616c69642070726f706f736572207369676e61747572650000000000006044820152606401610317565b6005546001600160a01b0316156104ca5760055460048054604051634129b2c960e01b8152600160a01b90910463ffffffff16918101919091526001600160a01b0390911690634129b2c990602401602060405180830381865afa158015610437573d6000803e3d6000fd5b505050506040513d601f19601f8201168201806040525081019061045b9190611a75565b6001600160a01b031661047460a08301608084016118c9565b6001600160a01b0316146104ca5760405162461bcd60e51b815260206004820152601760248201527f70726f706f73657220776173206e6f742077696e6e65720000000000000000006044820152606401610317565b6001600460148282829054906101000a900463ffffffff166104ec9190611aa8565b92506101000a81548163ffffffff021916908363ffffffff1602179055506000600360006001600460149054906101000a900463ffffffff1661052f9190611ac4565b63ffffffff1681526020810191909152604090810160002091508201356105568380611ae0565b604051602001610567929190611ba6565b60408051601f19818403018152908290526105859291602001611cd5565b604051602081830303815290604052805190602001208260200135146105e25760405162461bcd60e51b8152602060048201526012602482015271092dcecc2d8d2c840c4d8dec6d640d0c2e6d60731b6044820152606401610317565b60038101546105f89063ffffffff166001611aa8565b63ffffffff1661060e60808401606085016117c7565b63ffffffff16146106585760405162461bcd60e51b815260206004820152601460248201527324b73b30b634b210313637b1b590373ab6b132b960611b6044820152606401610317565b80600101548260400135146106a55760405162461bcd60e51b8152602060048201526013602482015272092dcecc2d8d2c840e0c2e4cadce840d0c2e6d606b1b6044820152606401610317565b6006546001600160a01b031615610850576006546004546000916001600160a01b031690632ca82350906106e890600190600160a01b900463ffffffff16611ac4565b6040516001600160e01b031960e084901b16815263ffffffff919091166004820152602401600060405180830381865afa15801561072a573d6000803e3d6000fd5b505050506040513d6000823e601f3d908101601f191682016040526107529190810190611dee565b90506000805b82518110156107e95760005b61076e8680611ae0565b90508110156107e0576107818680611ae0565b8281811061079157610791611f15565b90506020028101906107a39190611f2b565b602001358483815181106107b9576107b9611f15565b602002602001015160000151036107d8576107d5600184611f4b565b92505b600101610764565b50600101610758565b508151811461084d5760405162461bcd60e51b815260206004820152602a60248201527f426c6f636b20646f6573206e6f7420736174697366792076616c696469747920604482015269636f6e646974696f6e7360b01b6064820152608401610317565b50505b600454600160a01b900463ffffffff166000908152600360205260409020829061087a8282612390565b50610898905061088a8380611ae0565b61089391612468565b610d19565b5050565b6004546001600160a01b031633146109005760405162461bcd60e51b815260206004820152602160248201527f4f6e6c79206f776e65722063616e2063616c6c20746869732066756e6374696f6044820152603760f91b6064820152608401610317565b61090b838383610d4f565b505050565b6003602081905260009182526040909120600181015460028201549282015460048301805492949363ffffffff8316936401000000009093046001600160a01b03169290919061095f90611f5e565b80601f016020809104026020016040519081016040528092919081815260200182805461098b90611f5e565b80156109d85780601f106109ad576101008083540402835291602001916109d8565b820191906000526020600020905b8154815290600101906020018083116109bb57829003601f168201915b5050505050905085565b60006001836040516109f491906125b2565b90815260408051602092819003830190206001600160a01b0385166000908152925290205461ffff1690505b92915050565b6005546001600160a01b031615610a7f5760405162461bcd60e51b815260206004820152601d60248201527f456c656374696f6e20636f6e747261637420616c7265616479207365740000006044820152606401610317565b600580546001600160a01b0319166001600160a01b0392909216919091179055565b6006546001600160a01b031615610afa5760405162461bcd60e51b815260206004820152601d60248201527f536c617368696e6720636f6e747261637420616c7265616479207365740000006044820152606401610317565b600680546001600160a01b0319166001600160a01b0392909216919091179055565b63ffffffff811660009081526003602090815260408083208054825181850281018501909352808352606094919384929084015b82821015610cf6576000848152602090206040805160e081019091526005840290910180546001600160a01b03811660608401908152600160a01b90910460ff166080840152600182018054849291849160a085019190610bb090611f5e565b80601f0160208091040260200160405190810160405280929190818152602001828054610bdc90611f5e565b8015610c295780601f10610bfe57610100808354040283529160200191610c29565b820191906000526020600020905b815481529060010190602001808311610c0c57829003601f168201915b50505091835250506002919091015463ffffffff16602091820152908252600383015490820152600482018054604090920191610c6590611f5e565b80601f0160208091040260200160405190810160405280929190818152602001828054610c9190611f5e565b8015610cde5780601f10610cb357610100808354040283529160200191610cde565b820191906000526020600020905b815481529060010190602001808311610cc157829003601f168201915b50505050508152505081526020019060010190610b50565b50505050915050919050565b6000610d0f828585610e1d565b90505b9392505050565b60005b815181101561089857610d47828281518110610d3a57610d3a611f15565b6020026020010151610e91565b600101610d1c565b7f3f505721605cfa83a0c61624b235bca4675aa50bbaf3542f606e03d5e0f4c1d4838383604051610d82939291906125c4565b60405180910390a16001600084604051610d9c91906125b2565b908152604051908190036020018120805492151560ff19909316929092179091558190600190610dcd9086906125b2565b90815260200160405180910390206000846001600160a01b03166001600160a01b0316815260200190815260200160002060006101000a81548161ffff021916908361ffff160217905550505050565b6000836001600160a01b03163b600003610e7f57600080610e3e8585610f91565b5090925090506000816003811115610e5857610e586125fb565b148015610e765750856001600160a01b0316826001600160a01b0316145b92505050610d12565b610e8a848484610fde565b9050610d12565b8051604051600091610ea591602001612611565b60405160208183030381529060405280519060200120905081602001518114610f105760405162461bcd60e51b815260206004820152601860248201527f496e76616c6964207472616e73616374696f6e206861736800000000000000006044820152606401610317565b60208201516040830151835151610f28929190610d02565b610f685760405162461bcd60e51b8152602060048201526011602482015270496e76616c6964207369676e617475726560781b6044820152606401610317565b815160405161089891610f7d91602001612611565b6040516020818303038152906040526110ba565b60008060008351604103610fcb5760208401516040850151606086015160001a610fbd88828585611292565b955095509550505050610fd7565b50508151600091506002905b9250925092565b6000806000856001600160a01b03168585604051602401611000929190612624565b60408051601f198184030181529181526020820180516001600160e01b0316630b135d3f60e11b1790525161103591906125b2565b600060405180830381855afa9150503d8060008114611070576040519150601f19603f3d011682016040523d82523d6000602084013e611075565b606091505b509150915081801561108957506020815110155b80156110b057508051630b135d3f60e11b906110ae908301602090810190840161263d565b145b9695505050505050565b6000818060200190518101906110d09190612656565b90506110db81611361565b61111d5760405162461bcd60e51b815260206004820152601360248201527224b73b30b634b2103a3930b739b0b1ba34b7b760691b6044820152606401610317565b806020015160ff166000036111655760008160400151806020019051810190611146919061270b565b905061115f816000015182602001518360400151610d4f565b50611240565b806020015160ff16600103611240576000816040015180602001905181019061118e919061270b565b905060006111a4826000015184600001516109e2565b9050816040015161ffff168161ffff1610156111f95760405162461bcd60e51b8152602060048201526014602482015273496e73756666696369656e742062616c616e636560601b6044820152606401610317565b815183516040840151611217929190611212908561273f565b610d4f565b81516020830151604084015161123d92919061123383836109e2565b6112129190612759565b50505b80516001600160a01b0316600090815260026020526040812080546001929061127090849063ffffffff16611aa8565b92506101000a81548163ffffffff021916908363ffffffff1602179055505050565b600080807f7fffffffffffffffffffffffffffffff5d576e7357a4501ddfe92f46681b20a08411156112cd5750600091506003905082611357565b604080516000808252602082018084528a905260ff891692820192909252606081018790526080810186905260019060a0016020604051602081039080840390855afa158015611321573d6000803e3d6000fd5b5050604051601f1901519150506001600160a01b03811661134d57506000925060019150829050611357565b9250600091508190505b9450945094915050565b6000816020015160ff16600003611408576000826040015180602001905181019061138c919061270b565b9050600081600001516040516113a291906125b2565b9081526040519081900360200190205460ff16156114025760405162461bcd60e51b815260206004820152601960248201527f546f6b656e20616c726561647920696e697469616c697a6564000000000000006044820152606401610317565b50611572565b816020015160ff1660010361152a5760008260400151806020019051810190611431919061270b565b90506000816000015160405161144791906125b2565b9081526040519081900360200190205460ff1661149e5760405162461bcd60e51b8152602060048201526015602482015274151bdad95b881b9bdd081a5b9a5d1a585b1a5e9959605a1b6044820152606401610317565b806040015161ffff16600182600001516040516114bb91906125b2565b908152604080516020928190038301902086516001600160a01b03166000908152925290205461ffff1610156114025760405162461bcd60e51b8152602060048201526014602482015273496e73756666696369656e742062616c616e636560601b6044820152606401610317565b60405162461bcd60e51b815260206004820152601860248201527f496e76616c6964207472616e73616374696f6e207479706500000000000000006044820152606401610317565b606082015182516001600160a01b031660009081526002602052604090205463ffffffff9081169116146115d85760405162461bcd60e51b815260206004820152600d60248201526c496e76616c6964206e6f6e636560981b6044820152606401610317565b506001919050565b6000602082840312156115f257600080fd5b81356001600160401b0381111561160857600080fd5b820160c08185031215610d1257600080fd5b634e487b7160e01b600052604160045260246000fd5b604051608081016001600160401b03811182821017156116525761165261161a565b60405290565b604051606081016001600160401b03811182821017156116525761165261161a565b604051601f8201601f191681016001600160401b03811182821017156116a2576116a261161a565b604052919050565b60006001600160401b038211156116c3576116c361161a565b50601f01601f191660200190565b600082601f8301126116e257600080fd5b81356020830160006116fb6116f6846116aa565b61167a565b905082815285838301111561170f57600080fd5b82826020830137600092810160200192909252509392505050565b6001600160a01b038116811461173f57600080fd5b50565b61ffff8116811461173f57600080fd5b60008060006060848603121561176757600080fd5b83356001600160401b0381111561177d57600080fd5b611789868287016116d1565b935050602084013561179a8161172a565b915060408401356117aa81611742565b809150509250925092565b63ffffffff8116811461173f57600080fd5b6000602082840312156117d957600080fd5b8135610d12816117b5565b60005b838110156117ff5781810151838201526020016117e7565b50506000910152565b600081518084526118208160208601602086016117e4565b601f01601f19169290920160200192915050565b85815284602082015263ffffffff8416604082015260018060a01b038316606082015260a06080820152600061186d60a0830184611808565b979650505050505050565b6000806040838503121561188b57600080fd5b82356001600160401b038111156118a157600080fd5b6118ad858286016116d1565b92505060208301356118be8161172a565b809150509250929050565b6000602082840312156118db57600080fd5b8135610d128161172a565b6000602082840312156118f857600080fd5b81356001600160401b0381111561190e57600080fd5b61191a848285016116d1565b949350505050565b60018060a01b03815116825260ff602082015116602083015260006040820151608060408501526119566080850182611808565b60609384015163ffffffff16949093019390935250919050565b6000602082016020835280845180835260408501915060408160051b86010192506020860160005b828110156119fa57603f1987860301845281518051606087526119be6060880182611922565b9050602082015160208801526040820151915086810360408801526119e38183611808565b965050506020938401939190910190600101611998565b50929695505050505050565b600082611a2357634e487b7160e01b600052601260045260246000fd5b500690565b6000808335601e19843603018112611a3f57600080fd5b8301803591506001600160401b03821115611a5957600080fd5b602001915036819003821315611a6e57600080fd5b9250929050565b600060208284031215611a8757600080fd5b8151610d128161172a565b634e487b7160e01b600052601160045260246000fd5b63ffffffff8181168382160190811115610a2057610a20611a92565b63ffffffff8281168282160390811115610a2057610a20611a92565b6000808335601e19843603018112611af757600080fd5b8301803591506001600160401b03821115611b1157600080fd5b6020019150600581901b3603821315611a6e57600080fd5b60ff8116811461173f57600080fd5b6000808335601e19843603018112611b4f57600080fd5b83016020810192503590506001600160401b03811115611b6e57600080fd5b803603821315611a6e57600080fd5b81835281816020850137506000828201602090810191909152601f909101601f19169091010190565b6020808252810182905260006040600584901b830181019083018583605e1936839003015b87821015611cc857868503603f190184528235818112611bea57600080fd5b8901803536829003607e19018112611c0157600080fd5b6060875281018035611c128161172a565b6001600160a01b031660608801526020810135611c2e81611b29565b60ff166080880152611c436040820182611b38565b608060a08a0152611c5860e08a018284611b7d565b91505060608201359150611c6b826117b5565b63ffffffff821660c08901526000915060208301359150816020890152611c956040840184611b38565b935091508781036040890152611cac818484611b7d565b9750505050602083019250602084019350600182019150611bcb565b5092979650505050505050565b82815260008251611ced8160208501602087016117e4565b919091016020019392505050565b60006001600160401b03821115611d1457611d1461161a565b5060051b60200190565b6000611d2c6116f6846116aa565b9050828152838383011115611d4057600080fd5b610d128360208301846117e4565b600082601f830112611d5f57600080fd5b610d1283835160208501611d1e565b600060808284031215611d8057600080fd5b611d88611630565b90508151611d958161172a565b81526020820151611da581611b29565b602082015260408201516001600160401b03811115611dc357600080fd5b611dcf84828501611d4e565b6040830152506060820151611de3816117b5565b606082015292915050565b600060208284031215611e0057600080fd5b81516001600160401b03811115611e1657600080fd5b8201601f81018413611e2757600080fd5b8051611e356116f682611cfb565b8082825260208201915060208360051b850101925086831115611e5757600080fd5b602084015b83811015611f0a5780516001600160401b03811115611e7a57600080fd5b85016060818a03601f19011215611e9057600080fd5b611e98611658565b6020820151815260408201516001600160401b03811115611eb857600080fd5b611ec78b602083860101611d6e565b60208301525060608201516001600160401b03811115611ee657600080fd5b611ef58b602083860101611d4e565b60408301525084525060209283019201611e5c565b509695505050505050565b634e487b7160e01b600052603260045260246000fd5b60008235605e19833603018112611f4157600080fd5b9190910192915050565b80820180821115610a2057610a20611a92565b600181811c90821680611f7257607f821691505b602082108103611f9257634e487b7160e01b600052602260045260246000fd5b50919050565b5b818110156108985760008155600101611f99565b611fb78154611f5e565b801561089857601f811160018114611fd157505060009055565b600083815260209020611fef601f840160051c820160018301611f98565b5060008381526020812081855555505050565b60008135610a208161172a565b601f82111561090b57806000526020600020601f840160051c810160208510156120365750805b612048601f850160051c830182611f98565b5050505050565b6001600160401b038311156120665761206661161a565b61207a836120748354611f5e565b8361200f565b6000601f8411600181146120ae57600085156120965750838201355b600019600387901b1c1916600186901b178355612048565b600083815260209020601f19861690835b828110156120df57868501358255602094850194600190920191016120bf565b50868210156120fc5760001960f88860031b161c19848701351681555b505060018560011b0183555050505050565b60008135610a20816117b5565b8135607e1983360301811261212f57600080fd5b8201803561213c8161172a565b82546001600160a01b031981166001600160a01b03929092169182178455602083013561216881611b29565b6001600160a81b03199190911690911760a09190911b60ff60a01b16178255600182016121986040830183611a28565b6001600160401b038111156121af576121af61161a565b6121c3816121bd8554611f5e565b8561200f565b6000601f8211600181146121f757600083156121df5750838201355b600019600385901b1c1916600184901b178555612251565b600085815260209020601f19841690835b828110156122285786850135825560209485019460019092019101612208565b50848210156122455760001960f88660031b161c19848701351681555b505060018360011b0185555b50505050506122806122656060830161210e565b6002840163ffffffff821663ffffffff198254161781555050565b50602082013560038201556122986040830183611a28565b6122a681836004860161204f565b50505050565b680100000000000000008311156122c5576122c561161a565b80548382558084101561234a57806005026005810482146122e8576122e8611a92565b846005026005810486146122fe576122fe611a92565b60008481526020902091820191015b81811015612347576000815561232560018201611fad565b600060028201556000600382015561233f60048201611fad565b60050161230d565b50505b5060008181526020812083915b858110156123885761237261236c8487611f2b565b8361211b565b6020929092019160059190910190600101612357565b505050505050565b8135601e198336030181126123a457600080fd5b820180356001600160401b038111156123bc57600080fd5b6020820191508060051b36038213156123d457600080fd5b6123df8183856122ac565b505060208201356001820155604082013560028201556003810161241f6124086060850161210e565b825463ffffffff191663ffffffff91909116178255565b61245a61242e60808501612002565b828054640100000000600160c01b03191660209290921b640100000000600160c01b0316919091179055565b5061229860a0830183611a28565b60006124766116f684611cfb565b8381526020810190600585901b84013681111561249257600080fd5b845b818110156125a75780356001600160401b038111156124b257600080fd5b860160603682900312156124c557600080fd5b6124cd611658565b81356001600160401b038111156124e357600080fd5b820160803682900312156124f657600080fd5b6124fe611630565b81356125098161172a565b8152602082013561251981611b29565b602082015260408201356001600160401b0381111561253757600080fd5b612543368285016116d1565b60408301525060608201359150612559826117b5565b606081019190915281526020828101359082015260408201356001600160401b0381111561258657600080fd5b612592368285016116d1565b60408301525085525060209384019301612494565b509095945050505050565b60008251611f418184602087016117e4565b6060815260006125d76060830186611808565b6001600160a01b039490941660208301525061ffff91909116604090910152919050565b634e487b7160e01b600052602160045260246000fd5b602081526000610d126020830184611922565b828152604060208201526000610d0f6040830184611808565b60006020828403121561264f57600080fd5b5051919050565b60006020828403121561266857600080fd5b81516001600160401b0381111561267e57600080fd5b61191a84828501611d6e565b60006060828403121561269c57600080fd5b6126a4611658565b905081516001600160401b038111156126bc57600080fd5b8201601f810184136126cd57600080fd5b6126dc84825160208401611d1e565b82525060208201516126ed8161172a565b6020820152604082015161270081611742565b604082015292915050565b60006020828403121561271d57600080fd5b81516001600160401b0381111561273357600080fd5b61191a8482850161268a565b61ffff8281168282160390811115610a2057610a20611a92565b61ffff8181168382160190811115610a2057610a20611a9256fea26469706673582212208b4832e37b7191ece6db8a5ee87dceb8042f37f30e2762c5ab4e882f1bf6d57764736f6c634300081a0033","linkReferences":{}},"methodIdentifiers":{"blockNumber()":"57e871e7","blocks(uint32)":"5cd0783e","electionContract()":"e407bcbd","getBalance(string,address)":"89f4b317","getTransactionsInBlock(uint32)":"f46e2a30","initialized_tickers(string)":"a5d04e3d","nonces(address)":"7ecebe00","owner()":"8da5cb5b","proposeBlock((((address,uint8,bytes,uint32),bytes32,bytes)[],bytes32,bytes32,uint32,address,bytes))":"42f5f91f","setBalanceExternal(string,address,uint16)":"4da48b99","setElectionContract(address)":"c93949bf","setSlashingContract(address)":"cab3a581","slashingContract()":"0c505e51","state(string,address)":"7dc97ea1"},"id":90}