{"abi":[{"type":"constructor","inputs":[{"name":"enforcerAddress","type":"address","internalType":"address"}],"stateMutability":"nonpayable"},{"type":"function","name":"election_contract","inputs":[],"outputs":[{"name":"","type":"address","internalType":"contract ElectionContract"}],"stateMutability":"view"},{"type":"function","name":"enforcer","inputs":[],"outputs":[{"name":"","type":"address","internalType":"address"}],"stateMutability":"view"},{"type":"function","name":"getValidityConditions","inputs":[{"name":"L1_block_number","type":"uint256","internalType":"uint256"}],"outputs":[{"name":"","type":"tuple[]","internalType":"struct Transaction[]","components":[{"name":"tx_hash","type":"bytes32","internalType":"bytes32"},{"name":"tx_content","type":"tuple","internalType":"struct PreconfTransactionContent","components":[{"name":"from","type":"address","internalType":"address"},{"name":"txType","type":"uint8","internalType":"uint8"},{"name":"txParam","type":"bytes","internalType":"bytes"},{"name":"nonce","type":"uint32","internalType":"uint32"}]},{"name":"signature","type":"bytes","internalType":"bytes"}]}],"stateMutability":"view"},{"type":"function","name":"slash","inputs":[{"name":"commitment","type":"tuple","internalType":"struct PreconfirmationCommitment","components":[{"name":"preconfirmation_request","type":"tuple","internalType":"struct PreconfirmationRequest","components":[{"name":"tx_content","type":"tuple","internalType":"struct Transaction","components":[{"name":"tx_hash","type":"bytes32","internalType":"bytes32"},{"name":"tx_content","type":"tuple","internalType":"struct PreconfTransactionContent","components":[{"name":"from","type":"address","internalType":"address"},{"name":"txType","type":"uint8","internalType":"uint8"},{"name":"txParam","type":"bytes","internalType":"bytes"},{"name":"nonce","type":"uint32","internalType":"uint32"}]},{"name":"signature","type":"bytes","internalType":"bytes"}]},{"name":"tip_tx","type":"tuple","internalType":"struct Transaction","components":[{"name":"tx_hash","type":"bytes32","internalType":"bytes32"},{"name":"tx_content","type":"tuple","internalType":"struct PreconfTransactionContent","components":[{"name":"from","type":"address","internalType":"address"},{"name":"txType","type":"uint8","internalType":"uint8"},{"name":"txParam","type":"bytes","internalType":"bytes"},{"name":"nonce","type":"uint32","internalType":"uint32"}]},{"name":"signature","type":"bytes","internalType":"bytes"}]},{"name":"preconf_contract","type":"address","internalType":"address"}]},{"name":"commitment","type":"bytes","internalType":"bytes"},{"name":"signer","type":"address","internalType":"address"},{"name":"block_number","type":"uint256","internalType":"uint256"}]}],"outputs":[{"name":"","type":"bool","internalType":"bool"}],"stateMutability":"view"},{"type":"function","name":"submitValidityConditions","inputs":[{"name":"transactions","type":"tuple[]","internalType":"struct Transaction[]","components":[{"name":"tx_hash","type":"bytes32","internalType":"bytes32"},{"name":"tx_content","type":"tuple","internalType":"struct PreconfTransactionContent","components":[{"name":"from","type":"address","internalType":"address"},{"name":"txType","type":"uint8","internalType":"uint8"},{"name":"txParam","type":"bytes","internalType":"bytes"},{"name":"nonce","type":"uint32","internalType":"uint32"}]},{"name":"signature","type":"bytes","internalType":"bytes"}]}],"outputs":[],"stateMutability":"nonpayable"},{"type":"function","name":"validity_conditions","inputs":[{"name":"","type":"uint256","internalType":"uint256"},{"name":"","type":"uint256","internalType":"uint256"}],"outputs":[{"name":"tx_hash","type":"bytes32","internalType":"bytes32"},{"name":"tx_content","type":"tuple","internalType":"struct PreconfTransactionContent","components":[{"name":"from","type":"address","internalType":"address"},{"name":"txType","type":"uint8","internalType":"uint8"},{"name":"txParam","type":"bytes","internalType":"bytes"},{"name":"nonce","type":"uint32","internalType":"uint32"}]},{"name":"signature","type":"bytes","internalType":"bytes"}],"stateMutability":"view"}],"bytecode":{"object":"0x60806040523480156200001157600080fd5b5060405162003aa138038062003aa183398101604081905262000034916200019d565b3060405162000043906200018f565b6001600160a01b039091168152602001604051809103906000f08015801562000070573d6000803e3d6000fd5b50600080546001600160a01b03199081166001600160a01b0393841617825560018054909116928416929092179091555b60648110156200012457600054600154604051630474de9360e11b81526001600160a01b0391821660048201529116906308e9bd2690602401600060405180830381600087803b158015620000f557600080fd5b505af11580156200010a573d6000803e3d6000fd5b5050505080806200011b90620001cf565b915050620000a1565b506000546001546040516313de9b0f60e21b81526001600160a01b039182166004820152911690634f7a6c3c90602401600060405180830381600087803b1580156200016f57600080fd5b505af115801562000184573d6000803e3d6000fd5b5050505050620001f7565b612277806200182a83390190565b600060208284031215620001b057600080fd5b81516001600160a01b0381168114620001c857600080fd5b9392505050565b600060018201620001f057634e487b7160e01b600052601160045260246000fd5b5060010190565b61162380620002076000396000f3fe608060405234801561001057600080fd5b50600436106100625760003560e01c80630d14a0e21461006757806317364439146100975780632ca82350146100b95780635242505c146100d95780635c4a9e66146100fc578063a9ab89c71461010f575b600080fd5b60015461007a906001600160a01b031681565b6040516001600160a01b0390911681526020015b60405180910390f35b6100aa6100a5366004610d50565b610124565b60405161008e93929190610e10565b6100cc6100c7366004610e3b565b6102c5565b60405161008e9190610e54565b6100ec6100e7366004610ee5565b6104af565b604051901515815260200161008e565b60005461007a906001600160a01b031681565b61012261011d366004610f20565b6107f5565b005b6002602052816000526040600020818154811061014057600080fd5b60009182526020918290206005909102018054604080516080810182526001840180546001600160a01b038116835260ff600160a01b909104169582019590955260028401805493975093955093929084019161019c90610f95565b80601f01602080910402602001604051908101604052809291908181526020018280546101c890610f95565b80156102155780601f106101ea57610100808354040283529160200191610215565b820191906000526020600020905b8154815290600101906020018083116101f857829003601f168201915b50505091835250506002919091015463ffffffff1660209091015260048201805491929161024290610f95565b80601f016020809104026020016040519081016040528092919081815260200182805461026e90610f95565b80156102bb5780601f10610290576101008083540402835291602001916102bb565b820191906000526020600020905b81548152906001019060200180831161029e57829003601f168201915b5050505050905083565b606060026000838152602001908152602001600020805480602002602001604051908101604052809291908181526020016000905b828210156104a457600084815260209081902060408051606081018252600586029092018054835281516080810183526001820180546001600160a01b0381168352600160a01b900460ff168287015260028301805495969395938701949293919284019161036890610f95565b80601f016020809104026020016040519081016040528092919081815260200182805461039490610f95565b80156103e15780601f106103b6576101008083540402835291602001916103e1565b820191906000526020600020905b8154815290600101906020018083116103c457829003601f168201915b50505091835250506002919091015463ffffffff16602091820152908252600483018054929091019161041390610f95565b80601f016020809104026020016040519081016040528092919081815260200182805461043f90610f95565b801561048c5780601f106104615761010080835404028352916020019161048c565b820191906000526020600020905b81548152906001019060200180831161046f57829003601f168201915b505050505081525050815260200190600101906102fa565b505050509050919050565b600061053e6104be8380610fcf565b6040516020016104ce9190611177565b604051602081830303815290604052805190602001208380602001906104f491906111ea565b8080601f016020809104026020016040519081016040528093929190818152602001838380828437600092019190915250610539925050506060860160408701611231565b610acd565b6105835760405162461bcd60e51b8152602060048201526011602482015270496e76616c6964207369676e617475726560781b60448201526064015b60405180910390fd5b3061058e8380610fcf565b61059f906060810190604001611231565b6001600160a01b0316146106065760405162461bcd60e51b815260206004820152602860248201527f496e76616c696420707265636f6e6669726d6174696f6e20636f6e7472616374604482015267206164647265737360c01b606482015260840161057a565b6106166060830160408401611231565b600054604051634129b2c960e01b8152606085013560048201526001600160a01b039283169290911690634129b2c990602401602060405180830381865afa158015610666573d6000803e3d6000fd5b505050506040513d601f19601f8201168201806040525081019061068a919061124e565b6001600160a01b0316146107145760405162461bcd60e51b8152602060048201526044602482018190527f456e666f7263657220776173206e6f742074686520656c656374656420456e66908201527f6f7263657220666f722074686520636f6d6d697474656420626c6f636b206e7560648201526336b132b960e11b608482015260a40161057a565b6000805b606084013560009081526002602052604090205481101561079d5761073d8480610fcf565b6107479080610fcf565b6060850135600090815260026020526040902080549135918390811061076f5761076f61126b565b9060005260206000209060050201600001540361078b57600191505b8061079581611281565b915050610718565b5080156107ec5760405162461bcd60e51b815260206004820152601f60248201527f54686520707265636f6e6669726d6174696f6e2077617320686f6e6f72656400604482015260640161057a565b50600192915050565b600054604051634129b2c960e01b815243600482015233916001600160a01b031690634129b2c990602401602060405180830381865afa15801561083d573d6000803e3d6000fd5b505050506040513d601f19601f82011682018060405250810190610861919061124e565b6001600160a01b0316146108dd5760405162461bcd60e51b815260206004820152603860248201527f4f6e6c792074686520656c656374656420656e666f726365722063616e20737560448201527f626d69742076616c696469747920636f6e646974696f6e730000000000000000606482015260840161057a565b60005b81811015610ac85760008383838181106108fc576108fc61126b565b905060200281019061090e9190610fcf565b61091790611397565b8051604082015160208301515192935061093092610acd565b61097c5760405162461bcd60e51b815260206004820152601d60248201527f496e76616c6964207472616e73616374696f6e207369676e6174757265000000604482015260640161057a565b600081602001516040516020016109939190611472565b604051602081830303815290604052805190602001209050816000015181146109fe5760405162461bcd60e51b815260206004820152601860248201527f496e76616c6964207472616e73616374696f6e20686173680000000000000000604482015260640161057a565b43600090815260026020818152604080842080546001818101835591865294839020875160059096020194855586830151805191860180549482015160ff16600160a01b026001600160a81b03199095166001600160a01b039093169290921793909317815590820151869493840190610a7890826114d3565b50606091909101516002909101805463ffffffff191663ffffffff90921691909117905560408201516004820190610ab090826114d3565b50505050508080610ac090611281565b9150506108e0565b505050565b6000610ada828585610ae4565b90505b9392505050565b6000836001600160a01b03163b600003610b4657600080610b058585610b58565b5090925090506000816003811115610b1f57610b1f611593565b148015610b3d5750856001600160a01b0316826001600160a01b0316145b92505050610add565b610b51848484610ba5565b9050610add565b60008060008351604103610b925760208401516040850151606086015160001a610b8488828585610c81565b955095509550505050610b9e565b50508151600091506002905b9250925092565b6000806000856001600160a01b03168585604051602401610bc79291906115a9565b60408051601f198184030181529181526020820180516001600160e01b0316630b135d3f60e11b17905251610bfc91906115c2565b600060405180830381855afa9150503d8060008114610c37576040519150601f19603f3d011682016040523d82523d6000602084013e610c3c565b606091505b5091509150818015610c5057506020815110155b8015610c7757508051630b135d3f60e11b90610c7590830160209081019084016115d4565b145b9695505050505050565b600080807f7fffffffffffffffffffffffffffffff5d576e7357a4501ddfe92f46681b20a0841115610cbc5750600091506003905082610d46565b604080516000808252602082018084528a905260ff891692820192909252606081018790526080810186905260019060a0016020604051602081039080840390855afa158015610d10573d6000803e3d6000fd5b5050604051601f1901519150506001600160a01b038116610d3c57506000925060019150829050610d46565b9250600091508190505b9450945094915050565b60008060408385031215610d6357600080fd5b50508035926020909101359150565b60005b83811015610d8d578181015183820152602001610d75565b50506000910152565b60008151808452610dae816020860160208601610d72565b601f01601f19169290920160200192915050565b60018060a01b03815116825260ff60208201511660208301526000604082015160806040850152610df66080850182610d96565b60609384015163ffffffff16949093019390935250919050565b838152606060208201526000610e296060830185610dc2565b8281036040840152610c778185610d96565b600060208284031215610e4d57600080fd5b5035919050565b60006020808301818452808551808352604092508286019150828160051b87010184880160005b83811015610ed757603f19898403018552815160608151855288820151818a870152610ea982870182610dc2565b91505087820151915084810388860152610ec38183610d96565b968901969450505090860190600101610e7b565b509098975050505050505050565b600060208284031215610ef757600080fd5b813567ffffffffffffffff811115610f0e57600080fd5b820160808185031215610add57600080fd5b60008060208385031215610f3357600080fd5b823567ffffffffffffffff80821115610f4b57600080fd5b818501915085601f830112610f5f57600080fd5b813581811115610f6e57600080fd5b8660208260051b8501011115610f8357600080fd5b60209290920196919550909350505050565b600181811c90821680610fa957607f821691505b602082108103610fc957634e487b7160e01b600052602260045260246000fd5b50919050565b60008235605e19833603018112610fe557600080fd5b9190910192915050565b60008235605e1983360301811261100557600080fd5b90910192915050565b6001600160a01b038116811461102357600080fd5b50565b803560ff8116811461103757600080fd5b919050565b6000808335601e1984360301811261105357600080fd5b830160208101925035905067ffffffffffffffff81111561107357600080fd5b80360382131561108257600080fd5b9250929050565b81835281816020850137506000828201602090810191909152601f909101601f19169091010190565b803563ffffffff8116811461103757600080fd5b8035825260006020820135607e198336030181126110e357600080fd5b60606020850152820180356110f78161100e565b6001600160a01b0316606085015260ff61111360208301611026565b166080850152611126604082018261103c565b608060a087015261113b60e087018284611089565b91505063ffffffff61114f606084016110b2565b1660c0860152611162604085018561103c565b92508582036040870152610c77828483611089565b6020815260006111878384610fef565b6060602084015261119b60808401826110c6565b90506111aa6020850185610fef565b838203601f190160408501526111c082826110c6565b91505060408401356111d18161100e565b6001600160a01b03166060939093019290925250919050565b6000808335601e1984360301811261120157600080fd5b83018035915067ffffffffffffffff82111561121c57600080fd5b60200191503681900382131561108257600080fd5b60006020828403121561124357600080fd5b8135610add8161100e565b60006020828403121561126057600080fd5b8151610add8161100e565b634e487b7160e01b600052603260045260246000fd5b6000600182016112a157634e487b7160e01b600052601160045260246000fd5b5060010190565b634e487b7160e01b600052604160045260246000fd5b6040516060810167ffffffffffffffff811182821017156112e1576112e16112a8565b60405290565b6040516080810167ffffffffffffffff811182821017156112e1576112e16112a8565b600082601f83011261131b57600080fd5b813567ffffffffffffffff80821115611336576113366112a8565b604051601f8301601f19908116603f0116810190828211818310171561135e5761135e6112a8565b8160405283815286602085880101111561137757600080fd5b836020870160208301376000602085830101528094505050505092915050565b6000606082360312156113a957600080fd5b6113b16112be565b82358152602083013567ffffffffffffffff808211156113d057600080fd5b8185019150608082360312156113e557600080fd5b6113ed6112e7565b82356113f88161100e565b815261140660208401611026565b602082015260408301358281111561141d57600080fd5b6114293682860161130a565b60408301525061143b606084016110b2565b60608201526020840152604085013591508082111561145957600080fd5b506114663682860161130a565b60408301525092915050565b602081526000610add6020830184610dc2565b601f821115610ac857600081815260208120601f850160051c810160208610156114ac5750805b601f850160051c820191505b818110156114cb578281556001016114b8565b505050505050565b815167ffffffffffffffff8111156114ed576114ed6112a8565b611501816114fb8454610f95565b84611485565b602080601f831160018114611536576000841561151e5750858301515b600019600386901b1c1916600185901b1785556114cb565b600085815260208120601f198616915b8281101561156557888601518255948401946001909101908401611546565b50858210156115835787850151600019600388901b60f8161c191681555b5050505050600190811b01905550565b634e487b7160e01b600052602160045260246000fd5b828152604060208201526000610ada6040830184610d96565b60008251610fe5818460208701610d72565b6000602082840312156115e657600080fd5b505191905056fea2646970667358221220d966a70c5461de21c28993085967475e2debd5afac4a903c076d6e67d854f49a64736f6c63430008150033608060405234801561001057600080fd5b5060405161227738038061227783398101604081905261002f916100c6565b600080546001600160a01b0319166001600160a01b0383161790556040513090610058906100b9565b6001600160a01b039091168152602001604051809103906000f080158015610084573d6000803e3d6000fd5b50600280546001600160a01b03929092166001600160a01b0319928316179055436004556001805490911633179055506100f6565b611a108061086783390190565b6000602082840312156100d857600080fd5b81516001600160a01b03811681146100ef57600080fd5b9392505050565b610762806101056000396000f3fe608060405234801561001057600080fd5b50600436106100885760003560e01c80636ecba3e31161005b5780636ecba3e3146100f85780637499b26114610100578063b142eaab14610117578063c90335b81461012a57600080fd5b8063075461721461008d57806308e9bd26146100bd5780634129b2c9146100d25780634f7a6c3c146100e5575b600080fd5b6000546100a0906001600160a01b031681565b6040516001600160a01b0390911681526020015b60405180910390f35b6100d06100cb366004610656565b61013d565b005b6100a06100e0366004610673565b61020a565b6100d06100f3366004610656565b6102be565b6100d0610350565b61010960045481565b6040519081526020016100b4565b6002546100a0906001600160a01b031681565b6001546100a0906001600160a01b031681565b6000546001600160a01b031633146101a85760405162461bcd60e51b8152602060048201526024808201527f4f6e6c7920746865206d696e7465722063616e206d696e74206e6577207469636044820152636b65747360e01b60648201526084015b60405180910390fd5b6002546040516340d097c360e01b81526001600160a01b038381166004830152909116906340d097c390602401600060405180830381600087803b1580156101ef57600080fd5b505af1158015610203573d6000803e3d6000fd5b5050505050565b6002546004546000916001600160a01b03169083106102a157806001600160a01b0316636352211e61023b856104e6565b6040518263ffffffff1660e01b815260040161025991815260200190565b602060405180830381865afa158015610276573d6000803e3d6000fd5b505050506040513d601f19601f8201168201806040525081019061029a919061068c565b9392505050565b50506000908152600360205260409020546001600160a01b031690565b6000546001600160a01b0316331461032e5760405162461bcd60e51b815260206004820152602d60248201527f4f6e6c7920746865206d696e7465722063616e2073657420746865206465666160448201526c1d5b1d081c9958da5c1a595b9d609a1b606482015260840161019f565b600180546001600160a01b0319166001600160a01b0392909216919091179055565b60045443116103bc5760405162461bcd60e51b815260206004820152603260248201527f43616e6e6f742072656672657368207469636b65747320616761696e206265666044820152716f726520746865206e65787420626c6f636b60701b606482015260840161019f565b6004545b438110156104df5760006103d3826104e6565b6002546040516331a9108f60e11b8152600481018390529192506001600160a01b031690636352211e90602401602060405180830381865afa15801561041d573d6000803e3d6000fd5b505050506040513d601f19601f82011682018060405250810190610441919061068c565b6000838152600360205260409081902080546001600160a01b0319166001600160a01b039384161790556002546001549151634c57542360e01b815291831660048301526024820184905290911690634c57542390604401600060405180830381600087803b1580156104b357600080fd5b505af11580156104c7573d6000803e3d6000fd5b505050505080806104d7906106bf565b9150506103c0565b5043600455565b6000438211156105385760405162461bcd60e51b815260206004820152601a60248201527f43616e6e6f742071756572792066757475726520626c6f636b73000000000000604482015260640161019f565b610544610124436106d8565b82116105a45760405162461bcd60e51b815260206004820152602960248201527f43616e6e6f7420717565727920626c6f636b73206f6c646572207468616e2032604482015268393220626c6f636b7360b81b606482015260840161019f565b6002546040516390bbd75560e01b8152600481018490526001600160a01b039091169060009082906390bbd75590602401602060405180830381865afa1580156105f2573d6000803e3d6000fd5b505050506040513d601f19601f8201168201806040525081019061061691906106f1565b905060006106256040866106d8565b4090506000610634838361070a565b9695505050505050565b6001600160a01b038116811461065357600080fd5b50565b60006020828403121561066857600080fd5b813561029a8161063e565b60006020828403121561068557600080fd5b5035919050565b60006020828403121561069e57600080fd5b815161029a8161063e565b634e487b7160e01b600052601160045260246000fd5b6000600182016106d1576106d16106a9565b5060010190565b818103818111156106eb576106eb6106a9565b92915050565b60006020828403121561070357600080fd5b5051919050565b60008261072757634e487b7160e01b600052601260045260246000fd5b50069056fea264697066735822122051284481291621c34e7f63a66d6c62013b55dc63858c6aeaf5cfe684f374438564736f6c6343000815003360806040523480156200001157600080fd5b5060405162001a1038038062001a1083398101604081905262000034916200012a565b8060405180604001604052806006815260200165151a58dad95d60d21b815250604051806040016040528060018152602001601560fa1b81525081600090816200007f919062000201565b5060016200008e828262000201565b5050506001600160a01b038116620000c057604051631e4fbdf760e01b81526000600482015260240160405180910390fd5b620000cb81620000d8565b50506000600b55620002cd565b600a80546001600160a01b038381166001600160a01b0319831681179093556040519116919082907f8be0079c531659141344cd1fd0a4f28419497f9722a3daafe3b4186f6b6457e090600090a35050565b6000602082840312156200013d57600080fd5b81516001600160a01b03811681146200015557600080fd5b9392505050565b634e487b7160e01b600052604160045260246000fd5b600181811c908216806200018757607f821691505b602082108103620001a857634e487b7160e01b600052602260045260246000fd5b50919050565b601f821115620001fc57600081815260208120601f850160051c81016020861015620001d75750805b601f850160051c820191505b81811015620001f857828155600101620001e3565b5050505b505050565b81516001600160401b038111156200021d576200021d6200015c565b62000235816200022e845462000172565b84620001ae565b602080601f8311600181146200026d5760008415620002545750858301515b600019600386901b1c1916600185901b178555620001f8565b600085815260208120601f198616915b828110156200029e578886015182559484019460019091019084016200027d565b5085821015620002bd5787850151600019600388901b60f8161c191681555b5050505050600190811b01905550565b61173380620002dd6000396000f3fe608060405234801561001057600080fd5b506004361061014d5760003560e01c80636352211e116100c3578063a22cb4651161007c578063a22cb465146102ad578063ac5f82f2146102c0578063b88d4fde146102e0578063c87b56dd146102f3578063e985e9c514610306578063f2fde38b1461031957600080fd5b80636352211e1461025357806370a0823114610266578063715018a6146102795780638da5cb5b1461028157806390bbd7551461029257806395d89b41146102a557600080fd5b806323b872dd1161011557806323b872dd146101e15780632f745c59146101f457806340d097c31461020757806342842e0e1461021a5780634c5754231461022d5780634f6ccce71461024057600080fd5b806301ffc9a71461015257806306fdde031461017a578063081812fc1461018f578063095ea7b3146101ba57806318160ddd146101cf575b600080fd5b610165610160366004611327565b61032c565b60405190151581526020015b60405180910390f35b61018261033d565b6040516101719190611394565b6101a261019d3660046113a7565b6103cf565b6040516001600160a01b039091168152602001610171565b6101cd6101c83660046113d7565b6103f8565b005b6008545b604051908152602001610171565b6101cd6101ef366004611401565b610407565b6101d36102023660046113d7565b610497565b6101cd61021536600461143d565b6104fc565b6101cd610228366004611401565b610525565b6101cd61023b3660046113d7565b610545565b6101d361024e3660046113a7565b610560565b6101a26102613660046113a7565b6105b9565b6101d361027436600461143d565b6105c4565b6101cd61060c565b600a546001600160a01b03166101a2565b6101d36102a03660046113a7565b610620565b61018261069b565b6101cd6102bb366004611458565b6106aa565b6101d36102ce3660046113a7565b600c6020526000908152604090205481565b6101cd6102ee3660046114aa565b6106b5565b6101826103013660046113a7565b6106cd565b610165610314366004611586565b610742565b6101cd61032736600461143d565b610770565b6000610337826107ae565b92915050565b60606000805461034c906115b9565b80601f0160208091040260200160405190810160405280929190818152602001828054610378906115b9565b80156103c55780601f1061039a576101008083540402835291602001916103c5565b820191906000526020600020905b8154815290600101906020018083116103a857829003601f168201915b5050505050905090565b60006103da826107d3565b506000828152600460205260409020546001600160a01b0316610337565b61040382823361080c565b5050565b6001600160a01b03821661043657604051633250574960e11b8152600060048201526024015b60405180910390fd5b6000610443838333610819565b9050836001600160a01b0316816001600160a01b031614610491576040516364283d7b60e01b81526001600160a01b038086166004830152602482018490528216604482015260640161042d565b50505050565b60006104a2836105c4565b82106104d35760405163295f44f760e21b81526001600160a01b03841660048201526024810183905260440161042d565b506001600160a01b03919091166000908152600660209081526040808320938352929052205490565b610504610839565b600b80546000918261051583611609565b9190505590506104038282610866565b610540838383604051806020016040528060008152506106b5565b505050565b61054d610839565b610403610559826105b9565b8383610880565b600061056b60085490565b82106105945760405163295f44f760e21b8152600060048201526024810183905260440161042d565b600882815481106105a7576105a7611622565b90600052602060002001549050919050565b6000610337826107d3565b60006001600160a01b0382166105f0576040516322718ad960e21b81526000600482015260240161042d565b506001600160a01b031660009081526003602052604090205490565b610614610839565b61061e6000610930565b565b6000438211156106725760405162461bcd60e51b815260206004820152601a60248201527f43616e6e6f742071756572792066757475726520626c6f636b73000000000000604482015260640161042d565b600d54821161068e57506000908152600c602052604090205490565b600854610337565b919050565b60606001805461034c906115b9565b610403338383610982565b6106c0848484610407565b6104913385858585610a21565b60606106d8826107d3565b5060006106f060408051602081019091526000815290565b90506000815111610710576040518060200160405280600081525061073b565b8061071a84610b4c565b60405160200161072b929190611638565b6040516020818303038152906040525b9392505050565b6001600160a01b03918216600090815260056020908152604080832093909416825291909152205460ff1690565b610778610839565b6001600160a01b0381166107a257604051631e4fbdf760e01b81526000600482015260240161042d565b6107ab81610930565b50565b60006001600160e01b0319821663780e9d6360e01b1480610337575061033782610bdf565b6000818152600260205260408120546001600160a01b03168061033757604051637e27328960e01b81526004810184905260240161042d565b6105408383836001610c2f565b600080610827858585610d35565b9050610831610e02565b949350505050565b600a546001600160a01b0316331461061e5760405163118cdaa760e01b815233600482015260240161042d565b610403828260405180602001604052806000815250610e7c565b6001600160a01b0382166108aa57604051633250574960e11b81526000600482015260240161042d565b60006108b883836000610819565b90506001600160a01b0381166108e457604051637e27328960e01b81526004810183905260240161042d565b836001600160a01b0316816001600160a01b031614610491576040516364283d7b60e01b81526001600160a01b038086166004830152602482018490528216604482015260640161042d565b600a80546001600160a01b038381166001600160a01b0319831681179093556040519116919082907f8be0079c531659141344cd1fd0a4f28419497f9722a3daafe3b4186f6b6457e090600090a35050565b6001600160a01b0382166109b457604051630b61174360e31b81526001600160a01b038316600482015260240161042d565b6001600160a01b03838116600081815260056020908152604080832094871680845294825291829020805460ff191686151590811790915591519182527f17307eab39ab6107e8899845ad3d59bd9653f200f220920489ca2b5937696c31910160405180910390a3505050565b6001600160a01b0383163b15610b4557604051630a85bd0160e11b81526001600160a01b0384169063150b7a0290610a63908890889087908790600401611667565b6020604051808303816000875af1925050508015610a9e575060408051601f3d908101601f19168201909252610a9b918101906116a4565b60015b610b07573d808015610acc576040519150601f19603f3d011682016040523d82523d6000602084013e610ad1565b606091505b508051600003610aff57604051633250574960e11b81526001600160a01b038516600482015260240161042d565b805181602001fd5b6001600160e01b03198116630a85bd0160e11b14610b4357604051633250574960e11b81526001600160a01b038516600482015260240161042d565b505b5050505050565b60606000610b5983610e94565b600101905060008167ffffffffffffffff811115610b7957610b79611494565b6040519080825280601f01601f191660200182016040528015610ba3576020820181803683370190505b5090508181016020015b600019016f181899199a1a9b1b9c1cb0b131b232b360811b600a86061a8153600a8504945084610bad57509392505050565b60006001600160e01b031982166380ac58cd60e01b1480610c1057506001600160e01b03198216635b5e139f60e01b145b8061033757506301ffc9a760e01b6001600160e01b0319831614610337565b8080610c4357506001600160a01b03821615155b15610d05576000610c53846107d3565b90506001600160a01b03831615801590610c7f5750826001600160a01b0316816001600160a01b031614155b8015610c925750610c908184610742565b155b15610cbb5760405163a9fbf51f60e01b81526001600160a01b038416600482015260240161042d565b8115610d035783856001600160a01b0316826001600160a01b03167f8c5be1e5ebec7d5bd14f71427d1e84f3dd0314c0f7b2291e5b200ac8c7c3b92560405160405180910390a45b505b5050600090815260046020526040902080546001600160a01b0319166001600160a01b0392909216919091179055565b600080610d43858585610f6c565b90506001600160a01b038116610da057610d9b84600880546000838152600960205260408120829055600182018355919091527ff3f7a9fe364faab93b216da50a3214154f22a0a2b415b23a84c8169e8b636ee30155565b610dc3565b846001600160a01b0316816001600160a01b031614610dc357610dc38185611065565b6001600160a01b038516610ddf57610dda846110e6565b610831565b846001600160a01b0316816001600160a01b031614610831576108318585611195565b6001600d5443610e1291906116c1565b1115610e61576000600d546001610e2991906116d4565b90505b43811015610e5f57600d546000908152600c60205260408082205483835291205580610e5781611609565b915050610e2c565b505b600854436000818152600c6020526040902091909155600d55565b610e8683836111e5565b610540336000858585610a21565b60008072184f03e93ff9f4daa797ed6e38ed64bf6a1f0160401b8310610ed35772184f03e93ff9f4daa797ed6e38ed64bf6a1f0160401b830492506040015b6d04ee2d6d415b85acef81000000008310610eff576d04ee2d6d415b85acef8100000000830492506020015b662386f26fc100008310610f1d57662386f26fc10000830492506010015b6305f5e1008310610f35576305f5e100830492506008015b6127108310610f4957612710830492506004015b60648310610f5b576064830492506002015b600a83106103375760010192915050565b6000828152600260205260408120546001600160a01b0390811690831615610f9957610f9981848661124a565b6001600160a01b03811615610fd757610fb6600085600080610c2f565b6001600160a01b038116600090815260036020526040902080546000190190555b6001600160a01b03851615611006576001600160a01b0385166000908152600360205260409020805460010190555b60008481526002602052604080822080546001600160a01b0319166001600160a01b0389811691821790925591518793918516917fddf252ad1be2c89b69c2b068fc378daa952ba7f163c4a11628f55a4df523b3ef91a4949350505050565b6000611070836105c4565b6000838152600760209081526040808320546001600160a01b03881684526006909252909120919250908183146110c757600083815260208281526040808320548584528184208190558352600790915290208290555b6000938452600760209081526040808620869055938552525081205550565b6008546000906110f8906001906116c1565b6000838152600960205260408120546008805493945090928490811061112057611120611622565b90600052602060002001549050806008838154811061114157611141611622565b6000918252602080832090910192909255828152600990915260408082208490558582528120556008805480611179576111796116e7565b6001900381819060005260206000200160009055905550505050565b600060016111a2846105c4565b6111ac91906116c1565b6001600160a01b039093166000908152600660209081526040808320868452825280832085905593825260079052919091209190915550565b6001600160a01b03821661120f57604051633250574960e11b81526000600482015260240161042d565b600061121d83836000610819565b90506001600160a01b03811615610540576040516339e3563760e11b81526000600482015260240161042d565b6112558383836112ae565b610540576001600160a01b03831661128357604051637e27328960e01b81526004810182905260240161042d565b60405163177e802f60e01b81526001600160a01b03831660048201526024810182905260440161042d565b60006001600160a01b038316158015906108315750826001600160a01b0316846001600160a01b031614806112e857506112e88484610742565b806108315750506000908152600460205260409020546001600160a01b03908116911614919050565b6001600160e01b0319811681146107ab57600080fd5b60006020828403121561133957600080fd5b813561073b81611311565b60005b8381101561135f578181015183820152602001611347565b50506000910152565b60008151808452611380816020860160208601611344565b601f01601f19169290920160200192915050565b60208152600061073b6020830184611368565b6000602082840312156113b957600080fd5b5035919050565b80356001600160a01b038116811461069657600080fd5b600080604083850312156113ea57600080fd5b6113f3836113c0565b946020939093013593505050565b60008060006060848603121561141657600080fd5b61141f846113c0565b925061142d602085016113c0565b9150604084013590509250925092565b60006020828403121561144f57600080fd5b61073b826113c0565b6000806040838503121561146b57600080fd5b611474836113c0565b91506020830135801515811461148957600080fd5b809150509250929050565b634e487b7160e01b600052604160045260246000fd5b600080600080608085870312156114c057600080fd5b6114c9856113c0565b93506114d7602086016113c0565b925060408501359150606085013567ffffffffffffffff808211156114fb57600080fd5b818701915087601f83011261150f57600080fd5b81358181111561152157611521611494565b604051601f8201601f19908116603f0116810190838211818310171561154957611549611494565b816040528281528a602084870101111561156257600080fd5b82602086016020830137600060208483010152809550505050505092959194509250565b6000806040838503121561159957600080fd5b6115a2836113c0565b91506115b0602084016113c0565b90509250929050565b600181811c908216806115cd57607f821691505b6020821081036115ed57634e487b7160e01b600052602260045260246000fd5b50919050565b634e487b7160e01b600052601160045260246000fd5b60006001820161161b5761161b6115f3565b5060010190565b634e487b7160e01b600052603260045260246000fd5b6000835161164a818460208801611344565b83519083019061165e818360208801611344565b01949350505050565b6001600160a01b038581168252841660208201526040810183905260806060820181905260009061169a90830184611368565b9695505050505050565b6000602082840312156116b657600080fd5b815161073b81611311565b81810381811115610337576103376115f3565b80820180821115610337576103376115f3565b634e487b7160e01b600052603160045260246000fdfea2646970667358221220c98f00beabb68ef6422b32069fa525aa71e0ceae1fcbc1e86122340b63449bab64736f6c63430008150033","linkReferences":{}},"methodIdentifiers":{"election_contract()":"5c4a9e66","enforcer()":"0d14a0e2","getValidityConditions(uint256)":"2ca82350","slash((((bytes32,(address,uint8,bytes,uint32),bytes),(bytes32,(address,uint8,bytes,uint32),bytes),address),bytes,address,uint256))":"5242505c","submitValidityConditions((bytes32,(address,uint8,bytes,uint32),bytes)[])":"a9ab89c7","validity_conditions(uint256,uint256)":"17364439"},"id":47}