{"abi":[{"type":"constructor","inputs":[],"stateMutability":"nonpayable"},{"type":"function","name":"blockNumber","inputs":[],"outputs":[{"name":"","type":"uint32","internalType":"uint32"}],"stateMutability":"view"},{"type":"function","name":"blocks","inputs":[{"name":"","type":"uint32","internalType":"uint32"}],"outputs":[{"name":"blockHash","type":"bytes32","internalType":"bytes32"},{"name":"parentHash","type":"bytes32","internalType":"bytes32"},{"name":"blockNumber","type":"uint32","internalType":"uint32"},{"name":"proposer","type":"address","internalType":"address"},{"name":"proposer_signature","type":"bytes","internalType":"bytes"}],"stateMutability":"view"},{"type":"function","name":"electionContract","inputs":[],"outputs":[{"name":"","type":"address","internalType":"contract ElectionInterface"}],"stateMutability":"view"},{"type":"function","name":"getBalance","inputs":[{"name":"tokenTicker","type":"string","internalType":"string"},{"name":"holder_address","type":"address","internalType":"address"}],"outputs":[{"name":"","type":"uint16","internalType":"uint16"}],"stateMutability":"view"},{"type":"function","name":"getTransactionsInBlock","inputs":[{"name":"block_number","type":"uint32","internalType":"uint32"}],"outputs":[{"name":"","type":"tuple[]","internalType":"struct SPVM.SPVMTransaction[]","components":[{"name":"txContent","type":"tuple","internalType":"struct SPVM.TransactionContent","components":[{"name":"from","type":"address","internalType":"address"},{"name":"txType","type":"uint8","internalType":"uint8"},{"name":"txParam","type":"bytes","internalType":"bytes"},{"name":"nonce","type":"uint32","internalType":"uint32"}]},{"name":"transactionHash","type":"bytes32","internalType":"bytes32"},{"name":"signature","type":"bytes","internalType":"bytes"}]}],"stateMutability":"view"},{"type":"function","name":"initialized_tickers","inputs":[{"name":"","type":"string","internalType":"string"}],"outputs":[{"name":"","type":"bool","internalType":"bool"}],"stateMutability":"view"},{"type":"function","name":"nonces","inputs":[{"name":"","type":"address","internalType":"address"}],"outputs":[{"name":"","type":"uint32","internalType":"uint32"}],"stateMutability":"view"},{"type":"function","name":"proposeBlock","inputs":[{"name":"proposed_block","type":"tuple","internalType":"struct SPVM.Block","components":[{"name":"transactions","type":"tuple[]","internalType":"struct SPVM.SPVMTransaction[]","components":[{"name":"txContent","type":"tuple","internalType":"struct SPVM.TransactionContent","components":[{"name":"from","type":"address","internalType":"address"},{"name":"txType","type":"uint8","internalType":"uint8"},{"name":"txParam","type":"bytes","internalType":"bytes"},{"name":"nonce","type":"uint32","internalType":"uint32"}]},{"name":"transactionHash","type":"bytes32","internalType":"bytes32"},{"name":"signature","type":"bytes","internalType":"bytes"}]},{"name":"blockHash","type":"bytes32","internalType":"bytes32"},{"name":"parentHash","type":"bytes32","internalType":"bytes32"},{"name":"blockNumber","type":"uint32","internalType":"uint32"},{"name":"proposer","type":"address","internalType":"address"},{"name":"proposer_signature","type":"bytes","internalType":"bytes"}]}],"outputs":[],"stateMutability":"nonpayable"},{"type":"function","name":"setElectionContract","inputs":[{"name":"_electionContract","type":"address","internalType":"contract ElectionInterface"}],"outputs":[],"stateMutability":"nonpayable"},{"type":"function","name":"setSlashingContract","inputs":[{"name":"_slashingContract","type":"address","internalType":"contract Slashing"}],"outputs":[],"stateMutability":"nonpayable"},{"type":"function","name":"slashingContract","inputs":[],"outputs":[{"name":"","type":"address","internalType":"contract Slashing"}],"stateMutability":"view"},{"type":"function","name":"state","inputs":[{"name":"","type":"string","internalType":"string"},{"name":"","type":"address","internalType":"address"}],"outputs":[{"name":"","type":"uint16","internalType":"uint16"}],"stateMutability":"view"}],"bytecode":{"object":"0x60806040526004805463ffffffff19169055348015601c57600080fd5b50600080805260036020527f3617319a054d772f909f7c479a2cebe5066e836a939412e32403c99029b92f02805463ffffffff191690557f3617319a054d772f909f7c479a2cebe5066e836a939412e32403c99029b92f008190557f3617319a054d772f909f7c479a2cebe5066e836a939412e32403c99029b92f01556125a0806100a86000396000f3fe608060405234801561001057600080fd5b50600436106100b45760003560e01c806389f4b3171161007157806389f4b317146101bf578063a5d04e3d146101d2578063c93949bf14610210578063cab3a58114610223578063e407bcbd14610236578063f46e2a301461025157600080fd5b80630c505e51146100b957806342f5f91f146100e957806357e871e7146100fe5780635cd0783e146101235780637dc97ea1146101475780637ecebe0014610199575b600080fd5b6005546100cc906001600160a01b031681565b6040516001600160a01b0390911681526020015b60405180910390f35b6100fc6100f7366004611479565b610271565b005b60045461010e9063ffffffff1681565b60405163ffffffff90911681526020016100e0565b6101366101313660046114c8565b610831565b6040516100e0959493929190611535565b61018661015536600461169e565b81516020818401810180516001825292820194820194909420919093529091526000908152604090205461ffff1681565b60405161ffff90911681526020016100e0565b61010e6101a73660046116ef565b60026020526000908152604090205463ffffffff1681565b6101866101cd36600461169e565b610903565b6102006101e036600461170c565b805160208183018101805160008252928201919093012091525460ff1681565b60405190151581526020016100e0565b6100fc61021e3660046116ef565b610947565b6100fc6102313660046116ef565b6109d6565b6004546100cc9064010000000090046001600160a01b031681565b61026461025f3660046114c8565b610a51565b6040516100e09190611796565b61027c60024361182c565b156102c55760405162461bcd60e51b8152602060048201526014602482015273546f6f206561726c7920746f2070726f706f736560601b60448201526064015b60405180910390fd5b61032460208201356102da60a084018461184e565b8080601f01602080910402602001604051908101604052809392919081815260200183838082843760009201919091525061031f9250505060a08501608086016116ef565b610c37565b6103705760405162461bcd60e51b815260206004820152601a60248201527f496e76616c69642070726f706f736572207369676e617475726500000000000060448201526064016102bc565b60045464010000000090046001600160a01b0316156104735760048054604051634129b2c960e01b815263ffffffff82169281019290925264010000000090046001600160a01b031690634129b2c990602401602060405180830381865afa1580156103e0573d6000803e3d6000fd5b505050506040513d601f19601f82011682018060405250810190610404919061189b565b6001600160a01b031661041d60a08301608084016116ef565b6001600160a01b0316146104735760405162461bcd60e51b815260206004820152601760248201527f70726f706f73657220776173206e6f742077696e6e657200000000000000000060448201526064016102bc565b600480546001919060009061048f90849063ffffffff166118ce565b92506101000a81548163ffffffff021916908363ffffffff1602179055506000600360006001600460009054906101000a900463ffffffff166104d291906118ea565b63ffffffff1681526020810191909152604090810160002091508201356104f98380611906565b60405160200161050a9291906119cc565b60408051601f19818403018152908290526105289291602001611afb565b604051602081830303815290604052805190602001208260200135146105855760405162461bcd60e51b8152602060048201526012602482015271092dcecc2d8d2c840c4d8dec6d640d0c2e6d60731b60448201526064016102bc565b600381015461059b9063ffffffff1660016118ce565b63ffffffff166105b160808401606085016114c8565b63ffffffff16146105fb5760405162461bcd60e51b815260206004820152601460248201527324b73b30b634b210313637b1b590373ab6b132b960611b60448201526064016102bc565b80600101548260400135146106485760405162461bcd60e51b8152602060048201526013602482015272092dcecc2d8d2c840e0c2e4cadce840d0c2e6d606b1b60448201526064016102bc565b6005546001600160a01b0316156107ec576005546004546000916001600160a01b031690632ca82350906106849060019063ffffffff166118ea565b6040516001600160e01b031960e084901b16815263ffffffff919091166004820152602401600060405180830381865afa1580156106c6573d6000803e3d6000fd5b505050506040513d6000823e601f3d908101601f191682016040526106ee9190810190611c14565b90506000805b82518110156107855760005b61070a8680611906565b905081101561077c5761071d8680611906565b8281811061072d5761072d611d3b565b905060200281019061073f9190611d51565b6020013584838151811061075557610755611d3b565b6020026020010151600001510361077457610771600184611d71565b92505b600101610700565b506001016106f4565b50815181146107e95760405162461bcd60e51b815260206004820152602a60248201527f426c6f636b20646f6573206e6f7420736174697366792076616c696469747920604482015269636f6e646974696f6e7360b01b60648201526084016102bc565b50505b60045463ffffffff166000908152600360205260409020829061080f82826121b7565b5061082d905061081f8380611906565b6108289161228f565b610c4e565b5050565b6003602081905260009182526040909120600181015460028201549282015460048301805492949363ffffffff8316936401000000009093046001600160a01b03169290919061088090611d84565b80601f01602080910402602001604051908101604052809291908181526020018280546108ac90611d84565b80156108f95780601f106108ce576101008083540402835291602001916108f9565b820191906000526020600020905b8154815290600101906020018083116108dc57829003601f168201915b5050505050905085565b600060018360405161091591906123d9565b90815260408051602092819003830190206001600160a01b0385166000908152925290205461ffff1690505b92915050565b60045464010000000090046001600160a01b0316156109a85760405162461bcd60e51b815260206004820152601d60248201527f456c656374696f6e20636f6e747261637420616c72656164792073657400000060448201526064016102bc565b600480546001600160a01b0390921664010000000002640100000000600160c01b0319909216919091179055565b6005546001600160a01b031615610a2f5760405162461bcd60e51b815260206004820152601d60248201527f536c617368696e6720636f6e747261637420616c72656164792073657400000060448201526064016102bc565b600580546001600160a01b0319166001600160a01b0392909216919091179055565b63ffffffff811660009081526003602090815260408083208054825181850281018501909352808352606094919384929084015b82821015610c2b576000848152602090206040805160e081019091526005840290910180546001600160a01b03811660608401908152600160a01b90910460ff166080840152600182018054849291849160a085019190610ae590611d84565b80601f0160208091040260200160405190810160405280929190818152602001828054610b1190611d84565b8015610b5e5780601f10610b3357610100808354040283529160200191610b5e565b820191906000526020600020905b815481529060010190602001808311610b4157829003601f168201915b50505091835250506002919091015463ffffffff16602091820152908252600383015490820152600482018054604090920191610b9a90611d84565b80601f0160208091040260200160405190810160405280929190818152602001828054610bc690611d84565b8015610c135780601f10610be857610100808354040283529160200191610c13565b820191906000526020600020905b815481529060010190602001808311610bf657829003601f168201915b50505050508152505081526020019060010190610a85565b50505050915050919050565b6000610c44828585610c84565b90505b9392505050565b60005b815181101561082d57610c7c828281518110610c6f57610c6f611d3b565b6020026020010151610cf8565b600101610c51565b6000836001600160a01b03163b600003610ce657600080610ca58585610df8565b5090925090506000816003811115610cbf57610cbf6123eb565b148015610cdd5750856001600160a01b0316826001600160a01b0316145b92505050610c47565b610cf1848484610e45565b9050610c47565b8051604051600091610d0c91602001612401565b60405160208183030381529060405280519060200120905081602001518114610d775760405162461bcd60e51b815260206004820152601860248201527f496e76616c6964207472616e73616374696f6e2068617368000000000000000060448201526064016102bc565b60208201516040830151835151610d8f929190610c37565b610dcf5760405162461bcd60e51b8152602060048201526011602482015270496e76616c6964207369676e617475726560781b60448201526064016102bc565b815160405161082d91610de491602001612401565b604051602081830303815290604052610f21565b60008060008351604103610e325760208401516040850151606086015160001a610e2488828585611098565b955095509550505050610e3e565b50508151600091506002905b9250925092565b6000806000856001600160a01b03168585604051602401610e67929190612414565b60408051601f198184030181529181526020820180516001600160e01b0316630b135d3f60e11b17905251610e9c91906123d9565b600060405180830381855afa9150503d8060008114610ed7576040519150601f19603f3d011682016040523d82523d6000602084013e610edc565b606091505b5091509150818015610ef057506020815110155b8015610f1757508051630b135d3f60e11b90610f15908301602090810190840161242d565b145b9695505050505050565b600081806020019051810190610f379190612446565b9050610f4281611167565b610f845760405162461bcd60e51b815260206004820152601360248201527224b73b30b634b2103a3930b739b0b1ba34b7b760691b60448201526064016102bc565b806020015160ff16600003610fcc5760008160400151806020019051810190610fad9190612502565b9050610fc68160000151826020015183604001516113e6565b50611046565b806020015160ff166001036110465760008160400151806020019051810190610ff59190612502565b80518351604083015192935061101e9261100f8383610903565b6110199190612536565b6113e6565b80516020820151604083015161104492919061103a8383610903565b6110199190612550565b505b80516001600160a01b0316600090815260026020526040812080546001929061107690849063ffffffff166118ce565b92506101000a81548163ffffffff021916908363ffffffff1602179055505050565b600080807f7fffffffffffffffffffffffffffffff5d576e7357a4501ddfe92f46681b20a08411156110d3575060009150600390508261115d565b604080516000808252602082018084528a905260ff891692820192909252606081018790526080810186905260019060a0016020604051602081039080840390855afa158015611127573d6000803e3d6000fd5b5050604051601f1901519150506001600160a01b0381166111535750600092506001915082905061115d565b9250600091508190505b9450945094915050565b6000816020015160ff1660000361120e57600082604001518060200190518101906111929190612502565b9050600081600001516040516111a891906123d9565b9081526040519081900360200190205460ff16156112085760405162461bcd60e51b815260206004820152601960248201527f546f6b656e20616c726561647920696e697469616c697a65640000000000000060448201526064016102bc565b50611378565b816020015160ff1660010361133057600082604001518060200190518101906112379190612502565b90506000816000015160405161124d91906123d9565b9081526040519081900360200190205460ff166112a45760405162461bcd60e51b8152602060048201526015602482015274151bdad95b881b9bdd081a5b9a5d1a585b1a5e9959605a1b60448201526064016102bc565b806040015161ffff16600182600001516040516112c191906123d9565b908152604080516020928190038301902086516001600160a01b03166000908152925290205461ffff1610156112085760405162461bcd60e51b8152602060048201526014602482015273496e73756666696369656e742062616c616e636560601b60448201526064016102bc565b60405162461bcd60e51b815260206004820152601860248201527f496e76616c6964207472616e73616374696f6e2074797065000000000000000060448201526064016102bc565b606082015182516001600160a01b031660009081526002602052604090205463ffffffff9081169116146113de5760405162461bcd60e51b815260206004820152600d60248201526c496e76616c6964206e6f6e636560981b60448201526064016102bc565b506001919050565b60016000846040516113f891906123d9565b908152604051908190036020018120805492151560ff199093169290921790915581906001906114299086906123d9565b90815260200160405180910390206000846001600160a01b03166001600160a01b0316815260200190815260200160002060006101000a81548161ffff021916908361ffff160217905550505050565b60006020828403121561148b57600080fd5b81356001600160401b038111156114a157600080fd5b820160c08185031215610c4757600080fd5b63ffffffff811681146114c557600080fd5b50565b6000602082840312156114da57600080fd5b8135610c47816114b3565b60005b838110156115005781810151838201526020016114e8565b50506000910152565b600081518084526115218160208601602086016114e5565b601f01601f19169290920160200192915050565b85815284602082015263ffffffff8416604082015260018060a01b038316606082015260a06080820152600061156e60a0830184611509565b979650505050505050565b634e487b7160e01b600052604160045260246000fd5b604051608081016001600160401b03811182821017156115b1576115b1611579565b60405290565b604051606081016001600160401b03811182821017156115b1576115b1611579565b604051601f8201601f191681016001600160401b038111828210171561160157611601611579565b604052919050565b60006001600160401b0382111561162257611622611579565b50601f01601f191660200190565b600082601f83011261164157600080fd5b813560208301600061165a61165584611609565b6115d9565b905082815285838301111561166e57600080fd5b82826020830137600092810160200192909252509392505050565b6001600160a01b03811681146114c557600080fd5b600080604083850312156116b157600080fd5b82356001600160401b038111156116c757600080fd5b6116d385828601611630565b92505060208301356116e481611689565b809150509250929050565b60006020828403121561170157600080fd5b8135610c4781611689565b60006020828403121561171e57600080fd5b81356001600160401b0381111561173457600080fd5b61174084828501611630565b949350505050565b60018060a01b03815116825260ff6020820151166020830152600060408201516080604085015261177c6080850182611509565b60609384015163ffffffff16949093019390935250919050565b6000602082016020835280845180835260408501915060408160051b86010192506020860160005b8281101561182057603f1987860301845281518051606087526117e46060880182611748565b9050602082015160208801526040820151915086810360408801526118098183611509565b9650505060209384019391909101906001016117be565b50929695505050505050565b60008261184957634e487b7160e01b600052601260045260246000fd5b500690565b6000808335601e1984360301811261186557600080fd5b8301803591506001600160401b0382111561187f57600080fd5b60200191503681900382131561189457600080fd5b9250929050565b6000602082840312156118ad57600080fd5b8151610c4781611689565b634e487b7160e01b600052601160045260246000fd5b63ffffffff8181168382160190811115610941576109416118b8565b63ffffffff8281168282160390811115610941576109416118b8565b6000808335601e1984360301811261191d57600080fd5b8301803591506001600160401b0382111561193757600080fd5b6020019150600581901b360382131561189457600080fd5b60ff811681146114c557600080fd5b6000808335601e1984360301811261197557600080fd5b83016020810192503590506001600160401b0381111561199457600080fd5b80360382131561189457600080fd5b81835281816020850137506000828201602090810191909152601f909101601f19169091010190565b6020808252810182905260006040600584901b830181019083018583605e1936839003015b87821015611aee57868503603f190184528235818112611a1057600080fd5b8901803536829003607e19018112611a2757600080fd5b6060875281018035611a3881611689565b6001600160a01b031660608801526020810135611a548161194f565b60ff166080880152611a69604082018261195e565b608060a08a0152611a7e60e08a0182846119a3565b91505060608201359150611a91826114b3565b63ffffffff821660c08901526000915060208301359150816020890152611abb604084018461195e565b935091508781036040890152611ad28184846119a3565b97505050506020830192506020840193506001820191506119f1565b5092979650505050505050565b82815260008251611b138160208501602087016114e5565b919091016020019392505050565b60006001600160401b03821115611b3a57611b3a611579565b5060051b60200190565b6000611b5261165584611609565b9050828152838383011115611b6657600080fd5b610c478360208301846114e5565b600082601f830112611b8557600080fd5b610c4783835160208501611b44565b600060808284031215611ba657600080fd5b611bae61158f565b90508151611bbb81611689565b81526020820151611bcb8161194f565b602082015260408201516001600160401b03811115611be957600080fd5b611bf584828501611b74565b6040830152506060820151611c09816114b3565b606082015292915050565b600060208284031215611c2657600080fd5b81516001600160401b03811115611c3c57600080fd5b8201601f81018413611c4d57600080fd5b8051611c5b61165582611b21565b8082825260208201915060208360051b850101925086831115611c7d57600080fd5b602084015b83811015611d305780516001600160401b03811115611ca057600080fd5b85016060818a03601f19011215611cb657600080fd5b611cbe6115b7565b6020820151815260408201516001600160401b03811115611cde57600080fd5b611ced8b602083860101611b94565b60208301525060608201516001600160401b03811115611d0c57600080fd5b611d1b8b602083860101611b74565b60408301525084525060209283019201611c82565b509695505050505050565b634e487b7160e01b600052603260045260246000fd5b60008235605e19833603018112611d6757600080fd5b9190910192915050565b80820180821115610941576109416118b8565b600181811c90821680611d9857607f821691505b602082108103611db857634e487b7160e01b600052602260045260246000fd5b50919050565b5b8181101561082d5760008155600101611dbf565b611ddd8154611d84565b801561082d57601f811160018114611df757505060009055565b600083815260209020611e15601f840160051c820160018301611dbe565b50600083815260208120818555555b505050565b6000813561094181611689565b601f821115611e2457806000526020600020601f840160051c81016020851015611e5d5750805b611e6f601f850160051c830182611dbe565b5050505050565b6001600160401b03831115611e8d57611e8d611579565b611ea183611e9b8354611d84565b83611e36565b6000601f841160018114611ed55760008515611ebd5750838201355b600019600387901b1c1916600186901b178355611e6f565b600083815260209020601f19861690835b82811015611f065786850135825560209485019460019092019101611ee6565b5086821015611f235760001960f88860031b161c19848701351681555b505060018560011b0183555050505050565b60008135610941816114b3565b8135607e19833603018112611f5657600080fd5b82018035611f6381611689565b82546001600160a01b031981166001600160a01b039290921691821784556020830135611f8f8161194f565b6001600160a81b03199190911690911760a09190911b60ff60a01b1617825560018201611fbf604083018361184e565b6001600160401b03811115611fd657611fd6611579565b611fea81611fe48554611d84565b85611e36565b6000601f82116001811461201e57600083156120065750838201355b600019600385901b1c1916600184901b178555612078565b600085815260209020601f19841690835b8281101561204f578685013582556020948501946001909201910161202f565b508482101561206c5760001960f88660031b161c19848701351681555b505060018360011b0185555b50505050506120a761208c60608301611f35565b6002840163ffffffff821663ffffffff198254161781555050565b50602082013560038201556120bf604083018361184e565b6120cd818360048601611e76565b50505050565b680100000000000000008311156120ec576120ec611579565b805483825580841015612171578060050260058104821461210f5761210f6118b8565b84600502600581048614612125576121256118b8565b60008481526020902091820191015b8181101561216e576000815561214c60018201611dd3565b600060028201556000600382015561216660048201611dd3565b600501612134565b50505b5060008181526020812083915b858110156121af576121996121938487611d51565b83611f42565b602092909201916005919091019060010161217e565b505050505050565b8135601e198336030181126121cb57600080fd5b820180356001600160401b038111156121e357600080fd5b6020820191508060051b36038213156121fb57600080fd5b6122068183856120d3565b505060208201356001820155604082013560028201556003810161224661222f60608501611f35565b825463ffffffff191663ffffffff91909116178255565b61228161225560808501611e29565b828054640100000000600160c01b03191660209290921b640100000000600160c01b0316919091179055565b506120bf60a083018361184e565b600061229d61165584611b21565b8381526020810190600585901b8401368111156122b957600080fd5b845b818110156123ce5780356001600160401b038111156122d957600080fd5b860160603682900312156122ec57600080fd5b6122f46115b7565b81356001600160401b0381111561230a57600080fd5b8201608036829003121561231d57600080fd5b61232561158f565b813561233081611689565b815260208201356123408161194f565b602082015260408201356001600160401b0381111561235e57600080fd5b61236a36828501611630565b60408301525060608201359150612380826114b3565b606081019190915281526020828101359082015260408201356001600160401b038111156123ad57600080fd5b6123b936828501611630565b604083015250855250602093840193016122bb565b509095945050505050565b60008251611d678184602087016114e5565b634e487b7160e01b600052602160045260246000fd5b602081526000610c476020830184611748565b828152604060208201526000610c446040830184611509565b60006020828403121561243f57600080fd5b5051919050565b60006020828403121561245857600080fd5b81516001600160401b0381111561246e57600080fd5b61174084828501611b94565b60006060828403121561248c57600080fd5b6124946115b7565b905081516001600160401b038111156124ac57600080fd5b8201601f810184136124bd57600080fd5b6124cc84825160208401611b44565b82525060208201516124dd81611689565b6020820152604082015161ffff811681146124f757600080fd5b604082015292915050565b60006020828403121561251457600080fd5b81516001600160401b0381111561252a57600080fd5b6117408482850161247a565b61ffff8281168282160390811115610941576109416118b8565b61ffff8181168382160190811115610941576109416118b856fea2646970667358221220887aaf33a994cc8a3a1c0e934145b34fef444056900d759979c8c04173c34f4b64736f6c634300081a0033","linkReferences":{}},"methodIdentifiers":{"blockNumber()":"57e871e7","blocks(uint32)":"5cd0783e","electionContract()":"e407bcbd","getBalance(string,address)":"89f4b317","getTransactionsInBlock(uint32)":"f46e2a30","initialized_tickers(string)":"a5d04e3d","nonces(address)":"7ecebe00","proposeBlock((((address,uint8,bytes,uint32),bytes32,bytes)[],bytes32,bytes32,uint32,address,bytes))":"42f5f91f","setElectionContract(address)":"c93949bf","setSlashingContract(address)":"cab3a581","slashingContract()":"0c505e51","state(string,address)":"7dc97ea1"},"id":48}